:020000040800F2
:10000000F82E0020890100084D1C0008C5180008C2
:10001000491C00088F020008F31D000800000000C2
:10002000000000000000000000000000811D00082A
:100030009302000800000000511C0008831D000806
:10004000A3010008A3010008A3010008A301000800
:10005000A3010008A3010008A3010008A3010008F0
:10006000A3010008A3010008A3010008A3010008E0
:10007000A3010008A3010008A3010008A3010008D0
:10008000A3010008A3010008A3010008A3010008C0
:10009000A3010008A3010008A3010008A3010008B0
:1000A000A3010008A3010008A3010008A3010008A0
:1000B000A3010008A3010008A3010008A301000890
:1000C000A3010008A3010008A3010008A301000880
:1000D000A3010008A3010008A3010008A301000870
:1000E000A3010008A3010008A301000800F002F822
:1000F00000F03AF80AA090E8000C82448344AAF188
:100100000107DA4501D100F02FF8AFF2090EBAE885
:100110000F0013F0010F18BFFB1A43F0010318473B
:1001200070D4000090D40000103A24BF78C878C181
:10013000FAD8520724BF30C830C144BF04680C60ED
:10014000704700000023002400250026103A28BF35
:1001500078C1FBD8520728BF30C148BF0B60704739
:100160001FB51FBD10B510BD00F058F81146FFF7C0
:10017000F7FF01F05DFE00F076F803B4FFF7F2FF41
:1001800003BC00F07DF8000009488047094800479B
:10019000FEE7FEE7FEE7FEE7FEE7FEE7FEE7FEE737
:1001A000FEE7FEE704480549054A064B7047000094
:1001B000F11D0008ED000008F8170020F82E0020BF
:1001C000F8190020F81900204FF0000200B513467E
:1001D00094469646203922BFA0E80C50A0E80C5067
:1001E000B1F12001BFF4F7AF090728BFA0E80C5018
:1001F00048BF0CC05DF804EB890028BF40F8042B11
:1002000008BF704748BF20F8022B11F0804F18BF7D
:1002100000F8012B7047704770477047754600F033
:100220002BF8AE4605006946534620F00700854688
:1002300018B020B5FFF7B6FFBDE820404FF000062C
:100240004FF000074FF000084FF0000B21F00701BE
:10025000AC46ACE8C009ACE8C009ACE8C009ACE801
:10026000C0098D46704710B50446AFF300802046A4
:10027000BDE81040FFF781BF004870479817002085
:1002800001491820ABBEFEE726000200704700BF00
:10029000FEE770472DE9F0430646062E22D2DFE83E
:1002A00006F003080D171C1200210022FF23FF2473
:1002B00018E0002100220023002413E0FF21FF2288
:1002C000002300240EE000210022AA23552409E087
:1002D000AA2155220023002404E0AA2155225523F7
:1002E000AA2400BF00BF002035E0074600EBD77905
:1002F0004FEA6909A0EB4909B9F1000F01D089461D
:1003000000E09146CC46074600EBD7794FEA6909F1
:10031000A0EB4909B9F1000F01D0994600E0A146D0
:10032000C846002513E000EB800707EBC0072F4409
:10033000DFF82C9009F807C000EB800707EBC00737
:100340002F44DFF8209009F807806F1CBDB20D2DF7
:10035000E9DB471CB8B2D428C7DBBDE8F083000056
:10036000680000202C0B00202DE9FE4F05460E46AC
:1003700014469A460E9F672D0ADCD32E08DC2819F6
:10038000401E672804DC06EB0A00401ED32801DD6E
:10039000BDE8FE8FA846B3460020029069E0002029
:1003A000019026E097F800900020009019E009F0F5
:1003B000800028B1594640460C9A00F05BF904E0F1
:1003C000594640460D9A00F055F94FEA49604FEA08
:1003D000106908F1010000F0FF080098401CC0B24D
:1003E000009000980828E2DB7F1C0198401CC0B2F6
:1003F0000190E11704EB51720199B1EBE20FD1DBEF
:10040000E11704EB5171C910A4EBC10141B3002005
:1004100001901BE097F8009009F0800028B1594640
:1004200040460C9A00F026F904E0594640460D9AE1
:1004300000F020F94FEA49604FEA106908F1010025
:1004400000F0FF080198401CC0B20190E11704EBD6
:100450005171C910A4EBC10201998A42DADC7F1CF8
:10046000A8460BF1010000F0FF0B0298401CC0B23F
:1004700002900298504592DB00BF89E72DE9FF5FAB
:1004800007468846144699460397C2462046E11718
:1004900004EB5171C1F3CF05E11704EB5171C910A1
:1004A000A4EBC10109B1681C85B2109E4FF0000B8E
:1004B00018E02A4631460D4801F0E0FB2E440B4A75
:1004C000DDE90E0101238DE807002246514603981D
:1004D000FFF74AFF0AF1010000F0FF0A0BF10100EB
:1004E00000F0FF0BCB45E4DBBDE8FF9FF0150020DB
:1004F0002DE9FE4F04460D4616461F46DDF83080B6
:10050000672C09DCD32D07DCA019401E672803DC0B
:10051000E819401ED32801DDBDE8FE8FA246AB4698
:10052000002001903EE0002000902FE098F800901D
:100530004FF6FF7000EA092908F1010080460078B3
:1005400048441FFA80F9B9F1000F0CD0B9F5784F83
:1005500006D0A9F57F40FF3840B90120029005E0A0
:100560000020029002E00220029000BF00BF594626
:100570005046029A00F07EF80AF1010000F0FF0AEE
:1005800008F101080098401CC0B200900098B042E9
:10059000CCDBA2460BF1010000F0FF0B0198401CE0
:1005A000C0B201900198B842BDDB00BFB4E70000C3
:1005B0002DE9FC5F04460D4616461F460194A846E9
:1005C0004FEA4609DDF830A04FF0000B15E04A462F
:1005D00051460C4801F052FBCA440A4801233246F6
:1005E000414600900198FFF783FF08F1010000F0F9
:1005F000FF080BF1010000F0FF0BBB45E7DBBDE896
:10060000FC9F0000F01500202DE9F04304460D4644
:1006100016461F46DDF81C90672C01DCD32D01DD4A
:10062000BDE8F08327B9A019401E672800DDF7E771
:10063000012F04D1A819401ED32800DDF0E74FF0A8
:10064000000813E04A462946204600F013F817B187
:10065000012F06D102E0601CC4B202E0681CC5B2E2
:1006600000BF00BF08F1010000F0FF08B045E9DB62
:1006700000BFD5E7F0B503460C461546672B01DCF5
:10068000D32C00DDF0BDDE1703EB567604EB8407B8
:1006900007EBC40707EBE606B0B2DE1703EB5676AE
:1006A000F610A3EBC606C6F10706F1B225B1012D7F
:1006B00011D0022D2DD11DE0184A125C01268E406A
:1006C000B243164E3254164A125C01268E40324313
:1006D000134E32541EE0114A125C01268E40B24382
:1006E0000E4E32540E4A165C01228A4096430C4A42
:1006F00016540FE0094A125C01268E403243074E21
:100700003254074A125C01268E40B243044E3254E2
:1007100000E0B7E700BF00BFB4E7000068000020BA
:100720002C0B00202DE9F84F06460C4617461D46B7
:10073000DDE90B8BDDF828A0672E09DCD32C07DC64
:10074000F019401E672803DC6019401ED32801DD24
:10075000BDE8F88F00233A4621463046CDF80080A8
:10076000FFF752FF6019401EC1B200233A463046DF
:10077000CDF80080FFF748FFA81EC2B2601CC1B2CE
:1007800001233046CDF80080FFF73EFFAB1EDAB202
:10079000631CD9B2F3195B1ED8B20123CDF80080D7
:1007A000FFF732FFBAF1000F17D1601CC4B24FF04F
:1007B00000090FE0B91ECAB2711CC8B2002321465D
:1007C000CDF800B0FFF720FF601CC4B209F10100B2
:1007D00000F0FF09A81E4845ECDC00BFB8E72DE992
:1007E000F04706460F4614461D46A6F1200000F0CD
:1007F000FF0909FB05F844442A462146384601F022
:100800003DFABDE8F0872DE9F04705460C4617464E
:100810001E46DDF820807F2C03DAA4F14000C4B22C
:1008200002E0A4F14100C4B2A5F18100C5B2BE202E
:1008300000FB054000FB08F94E444246314638466D
:1008400001F01CFABDE8F08710B5044600BF1A4855
:10085000006840F040001849086000BF40F60801F9
:10086000164801F0EDF8052000F0C0F940F6080147
:10087000124801F0D9F80A2000F0B8F940F6080152
:100880000E4801F0DDF8052000F0B0F9002000F07E
:100890008DF90E2000F04EF9052000F0A7F9E520B3
:1008A00000F084F9192000F045F9E02000F07EF90D
:1008B000022000F03FF910BD003001400008014067
:1008C00010B500F005F800F02FF800F015F910BD94
:1008D00010B5102000F06AF940F6C421054800F078
:1008E0003BF9132000F062F940F6C421024800F001
:1008F00033F910BD680000202C0B002000BF00BFA2
:1009000008498968C1F340010029F8D005490873F6
:1009100000BF00BF00BF03498968C1F3C0110029AF
:10092000F8D170470030014010B500F0EDF8042018
:1009300000F03CF900F0E8F8122000F037F900F080
:10094000E3F810BD2DE9FF4F83B004460F469846EB
:10095000DDF84490A9F1200000F0FF09A2460297BB
:100960001098002834D108251020019000262BE093
:100970001A4800EB091010F806B00020009019E0AA
:100980000BF0800028B15046059A0299FFF772FEDD
:1009900004E0424650460299FFF76CFE4FEA4B6076
:1009A0004FEA106B0AF1010000F0FF0A0098401CAA
:1009B000C0B200900098A842E2DBA2460298401C18
:1009C000C0B20290701CC6B201988642D0DB00BF54
:1009D00000BF284607B0BDE8F08F00009FCF000899
:1009E0002DE9FC4305460E4617469846DDE9099475
:1009F00015E020787E280EDC207820280BDB20787C
:100A000043463A463146CDE900902846FFF79AFF23
:100A10002844C5B202E0207800B901E0641CE8E790
:100A200000BF2846BDE8FC832DE9FF4F9DB08346FB
:100A300090469946DDF8ACA05D461E9803902A9832
:100A400068B90020099020200790102610200590FA
:100A500028480890102006900827049000BF00BF87
:100A600041E09AF8004004B93EE0812C1FDBFE2CE7
:100A70001DDC0AF10100824600780A900798C0B296
:100A800000900BAA2046DDE90931FFF7BCFEA8194A
:100A9000672826DC0BA8CDE900890290324628465B
:100AA000059B0399FFF760FCA819C5B219E07E2CDD
:100AB00017DC202C15DB0698C3B20BA92046089A38
:100AC000FFF78DFEE81967280BDC0BA8CDE900893C
:100AD00002903A462846DDE90313FFF745FCE81982
:100AE000C5B20AF1010ABCE700BF284621B0BDE843
:100AF000F08F000080B00B0010B5022000F056F817
:100B000000F002F810BD000010B502E0642000F013
:100B10006DF840F202200649896801EA1021020AB4
:100B2000914201D1012100E000210029EED010BD49
:100B30000008014010B5044641F21001054800F0DC
:100B400073FF2046FFF7DAFE41F21001014800F082
:100B500077FF10BD0008014070B504460D46002621
:100B600041F21001104800F05FFF40F204410E48CE
:100B700000F066FF012D03D12078FFF7BFFE0CE0E7
:100B80002E4608E02078FFF7B9FE6078FFF7B6FE42
:100B9000761EA41C761E002EF4D141F210010248EC
:100BA00000F04EFF70BD00000008014010B5044683
:100BB00041F210010A4800F037FF40F204410848B2
:100BC00000F032FF2046FFF799FE40F2044104484E
:100BD00000F036FF41F21001014800F031FF10BD76
:100BE0000008014072B600BFFEE7000070B5044681
:100BF00000F0A0F906462546681C10B104480078AC
:100C0000054400BF00F096F9801BA842FAD370BDDE
:100C1000080000202DE9F8470346002294466EE1C3
:100C20004FF0010808FA02F4D1F8008008EA040045
:100C3000A0427DD1DFF8DCA2D1F80480A8EB0A093C
:100C4000D0453AD014DCB8F1030F50D009DCB8F12C
:100C5000000F31D0B8F1010F1CD0B8F1020F49D10B
:100C600020E0B8F1110F18D0B8F1120F42D11EE0F8
:100C7000B9F5881F25D006DCB9F5803F20D0B9F53D
:100C8000801F37D11AE0B9F5001F18D0B9F5041F3D
:100C900030D117E0D1F80CC02DE0D1F80C8008F16C
:100CA000040C28E0D1F80C8008F1080C23E0D1F8FE
:100CB0000C8008F10C0C1EE000BF00BF00BF00BF9D
:100CC00000BF00BFD1F80880B8F1000F02D14FF08B
:100CD000040C0BE0D1F80880B8F1010F03D14FF0FC
:100CE000080C1C6102E04FF0080C5C6103E04FF05F
:100CF000000C00E000BF00BFFF2801D8984601E0CB
:100D000003F104084646FF2802D84FEA820803E0B0
:100D1000A2F108084FEA88084746D6F800804FF04D
:100D20000F0909FA07F928EA09080CFA07F900E09F
:100D300088E048EA0908C6F80080D1F8048008F085
:100D40008058B8F1805F7DD100BFDFF8CC81D8F842
:100D5000188048F00108DFF8C091C9F81880C8462B
:100D6000D8F8188008F00108CDF8008000BF00BF57
:100D70004FEAB9384FEA920958F829504FEA827879
:100D80004FEA18794FF00F0808FA09F825EA080524
:100D9000DFF88881434502D14FF0000816E0DFF804
:100DA0008081434502D14FF001080FE0DFF87481E4
:100DB000434502D14FF0020808E0DFF86C8143455B
:100DC00002D14FF0030801E04FF004084FEA8279A6
:100DD0004FEA197908FA09F848EA0505DFF84C8165
:100DE0004FEA920948F82950D1F8048008F4803875
:100DF000B8F5803F0AD1DFF83881D8F8008048EA9A
:100E00000008DFF82C91C9F8008009E0DFF82081A4
:100E1000D8F8008028EA0008DFF81491C9F80080AB
:100E2000D1F8048008F40038B8F5003F10D1DFF89D
:100E3000008108F10408D8F8008048EA0008DFF8CB
:100E4000F09000E05AE009F10409C9F800800DE0D3
:100E5000DFF8DC8008F10408D8F8008028EA0008F0
:100E6000DFF8CC9009F10409C9F80080D1F80480BA
:100E700008F48018B8F5801F0ED1DFF8B48008F1AF
:100E80000808D8F8008048EA0008DFF8A49009F1C3
:100E90000809C9F800800DE0DFF8948008F108081F
:100EA000D8F8008028EA0008DFF8849009F10809E2
:100EB000C9F80080D1F8048008F40018B8F5001FC4
:100EC0000ED1DFF86C8008F10C08D8F8008048EAF1
:100ED0000008DFF85C9009F10C09C9F800800DE00A
:100EE000DFF84C8008F10C08D8F8008028EA0008E8
:100EF000DFF83C9009F10C09C9F80080521CD1F8C8
:100F0000008028FA02F8B8F1000F7FF489AEBDE83E
:100F1000F887000000001110001002400008014096
:100F2000000C014000100140001401400800014085
:100F300000040140014800687047000000000020E4
:100F4000034800680349097808440149086070476C
:100F5000000000200800002010B50848006840F09C
:100F6000100006490860032000F098F80F2000F0F8
:100F700007F800F02BF8002010BD00000020024010
:100F800070B504460E4800784FF47A71B1FBF0F06A
:100F90000C490968B1FBF0F5284600F079FC08B16E
:100FA000012070BD102C07D200222146501E00F0F7
:100FB00037F80548046001E00120F2E70020F0E77F
:100FC000080000200C0000200400002008B500BF2D
:100FD0001148806940F001000F4988610846806926
:100FE00000F00100009000BF00BF00BF0846C069CC
:100FF00040F08050C8610846C06900F08050009001
:1010000000BF00BF00BF0549486820F0E06040F025
:101010000070486000BF08BD0010024000000140A1
:101020002DE9F05F80460D461646002700F0E4FEED
:10103000074639462A46334601F00700C0F1070A41
:10104000BAF1040F02D94FF0040A01E0C0F1070A17
:10105000D14600F1040ABAF1070F02D24FF0000A9C
:1010600001E0A0F1030AD4464FF0010A0AFA09FA96
:10107000AAF1010A0AEA020A0AFA0CFA4FF0010B75
:101080000BFA0CFBABF1010B0BEA030B4AEA0B0466
:101090002146404600F0B8FEBDE8F09F00BF00F0DA
:1010A0000702064B19684FF6FF031940044B0B4328
:1010B00043EA0221014B196000BF70470CED00E0CC
:1010C0000000FA0570B504460D460CB9012070BD4C
:1010D0005A48006800F00700A8420ED2574800683E
:1010E00020F007002843554908600846006800F0D2
:1010F0000700A84201D00120E9E7207800F00200B3
:1011000002281DD1207800F00400042805D14C48A5
:10111000406840F4E0604A494860207800F00800E8
:10112000082805D14648406840F46050444948606A
:101130004348406820F0F000A168084340494860F7
:10114000207800F0010078B36068012806D13C489F
:10115000006800F4003090B90120B8E76068022808
:1011600006D13748006800F0007040B90120AEE7B2
:101170003348006800F0020008B90120A7E73048B2
:10118000406820F00300616808432D494860FFF77C
:10119000D1FE064609E0FFF7CDFE801B41F2883103
:1011A000884202D9032092E707E02548406800F012
:1011B0000C006168B0EB810FEDD12048006800F0B1
:1011C0000700A8420ED91D48006820F007002843F8
:1011D0001A4908600846006800F00700A84201D0DC
:1011E000012074E7207800F00400042807D1144897
:1011F000406820F4E060E1680843114948602078C5
:1012000000F00800082808D10D48406820F460501C
:10121000216940EAC1000A49486000F019F808490C
:101220004968C1F30311074A515CC8400649086088
:1012300006480068FFF7A4FE002048E700200240AF
:101240000010024080CF00080C00002004000020A5
:10125000F0B585B00FF26C0C9CE8E01001A8A0E896
:10126000E0101CA52D680095002100220023002419
:101270000020194D696801F00C05F5B1042D02D06C
:10128000082D19D101E0154819E001ADC1F38346DD
:10129000AC5D01F4803555B10F4D6D68C5F3404527
:1012A0001DF805200D4D6543B5FBF2F302E00C4D32
:1012B00004FB05F3184602E000BF084800BF00BF6A
:1012C00005B0F0BD02030405060708090A0B0C0D62
:1012D0000E0F1010010200000010024000127A00F0
:1012E00000093D00F8B504460CB90120F8BD20788E
:1012F00000F00100002878D0F848406800F00C00A9
:1013000004280CD0F548406800F00C00082811D1E2
:10131000F248406800F48030B0F5803F0AD1EF48D1
:10132000006800F4003000285FD0606800285CD1BD
:101330000120DBE700BF6068B0F5803F06D1E748D9
:10134000006840F48030E549086028E0606858B9DA
:10135000E248006820F48030E049086008460068F0
:1013600020F4802008601AE06068B0F5A02F0BD14F
:10137000DA48006840F48020D849086008460068D0
:1013800040F4803008600AE0D448006820F48030DF
:10139000D24908600846006820F48020086000BF39
:1013A000606888B1FFF7C6FD054606E0FFF7C2FD9D
:1013B000401B642801D9032098E7C848006800F45E
:1013C00000300028F2D010E0FFF7B4FD054606E03B
:1013D000FFF7B0FD401B642801D9032086E7BF4812
:1013E000006800F400300028F2D1207800F00200FC
:1013F000022857D1B948406800F00C0050B1B748F6
:10140000406800F00C00082818D1B448406800F487
:10141000803098B9B148006800F0020020B120691E
:10142000012801D0012061E7AC48006820F0F800F5
:10143000616940EAC100A949086033E02069E8B168
:101440000120A7490860FFF775FD054606E0FFF794
:1014500071FD401B022801D9032047E79F4800681F
:1014600000F002000028F2D09C48006820F0F8004C
:10147000616940EAC1009949086013E00020984979
:101480000860FFF757FD054606E0FFF753FD401BD8
:10149000022801D9032029E79048006800F00200E3
:1014A0000028F2D1207800F0080008282DD1A0698A
:1014B000B8B101208B490860FFF73CFD054606E006
:1014C000FFF738FD401B022801D903200EE78348AF
:1014D000406A00F002000028F2D0012000F0BAFBC0
:1014E00013E000207F490860FFF724FD054606E071
:1014F000FFF720FD401B022801D90320F6E67748BC
:10150000406A00F002000028F2D1207800F00400C8
:10151000042873D100277148C06900F0805070B969
:1015200000BF6E48C06940F080506C49C8610846F1
:10153000C06900F08050009000BF00BF01276A48DA
:10154000006800F48070B0B96748006840F48070AB
:1015500065490860FFF7EEFC054606E0FFF7EAFC88
:10156000401B642801D90320C0E65F48006800F4EE
:1015700080700028F2D000BFE068012806D15748EB
:10158000006A40F001005549086227E0E06858B958
:101590005248006A20F00100504908620846006A7B
:1015A00020F00400086219E0E06805280BD14B48E0
:1015B000006A40F00400494908620846006A40F0A9
:1015C000010008620AE04548006A20F00100434932
:1015D00008620846006A20F00400086200BFE06864
:1015E000A0B1FFF7A7FC054609E0FFF7A3FC401BED
:1015F00041F28831884202D9032077E622E0374859
:10160000006A00F002000028EFD012E0FFF792FC21
:10161000054608E0FFF78EFC401B41F28831884206
:1016200001D9032062E62D48006A00F0020000287C
:10163000F0D1012F05D12948C06920F080502749F9
:10164000C86100BFE069C8B32448406800F00C00DE
:10165000082860D0E069022848D1002020490866A7
:10166000FFF768FC054606E0FFF764FC401B022814
:1016700001D903203AE61948006800F000700028FC
:10168000F2D1206AB0F5803F07D11448406820F4B9
:101690000030A168084311494860D4E908010843B3
:1016A0000E49496821F4741108430C49486001202F
:1016B0000B490866FFF73EFC054607E03DE0FFF7F3
:1016C00039FC401B022801D903200FE603480068BB
:1016D00000F000700028F2D02FE00000001002405F
:1016E0000000424280044242007000400020144941
:1016F0000866FFF71FFC054606E0FFF71BFC401BD2
:10170000022801D90320F1E50E48006800F00070BE
:101710000028F2D111E0E069012800D1E6E509488E
:10172000466806F48031206A814204D106F47011C3
:10173000606A814201D00120D8E50020D6E5000092
:10174000000042420010024010B504460CB90120CE
:1017500010BD606A38B96068B0F5827F00D105E0DD
:101760000021E16102E00021216161610021A162AB
:1017700094F8510028B9002084F85000204600F069
:1017800043F8022084F851002068006820F04000EF
:1017900021680860A08800F48270218901F4044166
:1017A0000843A18901F400610843217C01F0020192
:1017B0000843217D01F001010843218B01F40071F0
:1017C0000843217F01F0380108432021095D01F021
:1017D00080010843218D01F400510843216808600D
:1017E0000421A06901EA1040216848602068C069AE
:1017F00020F400602168C86100206065012084F841
:1018000051000020A4E7000010B586B00446002077
:1018100002900390049005901A49206888422FD1C5
:1018200000BF1948C06940F480401749C8610846A4
:10183000C06900F48040019000BF00BF00BF0846AF
:10184000806940F0080088610846806900F008005F
:10185000019000BF00BF4FF420400290022003908F
:101860000320059002A90948FFF7D4F94FF48040FE
:10187000029000200390049002A90448FFF7CAF9DF
:1018800006B010BD0038004000100240000C0140BE
:1018900070B504462546681EB0F1807F01D3012053
:1018A0000FE0681E4FF0E02148610F214FF0FF303C
:1018B00000F0AAFA00204FF0E021886107200861BB
:1018C000002070BD00BFFEE708B5054989690143E6
:1018D000034A9161114689690140009100BF08BD2A
:1018E0000010024008B5054989690143034A916126
:1018F000114689690140009100BF08BD00100240F7
:101900002DE9F04102460B461868C0F30F2595FA01
:10191000A5F0B0FA80F480E00120A0402840002823
:101920007AD0082C04D240F2011000FA04F106E04B
:10193000A4F108004FF00116864046F08061586817
:1019400008280ED11869D66826EA11260F0A97FAD8
:10195000A7F7B7FA87F700FA07F73E43D66000BF4C
:1019600000BF586802EB116691FAA1FCBCFA8CFC2E
:101970004FEA8C084FF00F0C0CFA08FC376827EA86
:101980000C0791FAA1FCBCFA8CFC4FEA8C0C00FA13
:101990000CFC47EA0C07376000BF5868012802D0EA
:1019A0005868092838D1986802EB116691FAA1FCB1
:1019B000BCFA8CFC4FEA8C084FF0030C0CFA08FCC4
:1019C000376827EA0C0791FAA1FCBCFA8CFC4FEAB5
:1019D0008C0C00FA0CFC47EA0C07376000BFD86893
:1019E00002EB116691FAA1FCBCFA8CFC4FEA8C0860
:1019F0004FF0040C0CFA08FC376827EA0C0791FA40
:101A0000A1FCBCFA8CFC4FEA8C0C00FA0CFC47EAF7
:101A10000C07376000BF00BF641C25FA04F00028E3
:101A20007FF47AAFBDE8F081C1F30F2242617047C5
:101A3000C1F30F2242617047C1F30F220261704768
:101A4000C1F30F2202617047C1F30F220261704798
:101A500030B50246012300BF1068C0F3801038BBC8
:101A6000D1E9000420438C682043CC6820430C69F2
:101A700020434C6920438C692043CC6920430C6A85
:101A8000204314684FF6BF75AC4320431060506884
:101A900020F004004C6940EA14405060086AB0F538
:101AA000005F04D1486A84B2146100BF00BF002304
:101AB000184630BD00B585B014216846FEF784FB9A
:101AC0001020FFF701FF2020FFF7FEFE0420FFF7A4
:101AD000FBFE0820FFF7F8FE40F60C40010A244AFE
:101AE000516100BF41F210011046FFF7A5FF2149E7
:101AF0002148FFF7A1FF214800900020019069468E
:101B00001F48FFF7FDFE1F48009000200190694626
:101B10001748FFF7F5FE40F20220009004200190E4
:101B200069461348FFF7ECFE41F61C400090012087
:101B30000190022002900020039069460C48FFF7B4
:101B4000DFFE0C48113800900020019069460A48D9
:101B5000FFF7D6FE07480090012001900220029076
:101B60000020039069460448FFF7CAFE05B000BD97
:101B70000008014010001004000C0140E000E004E7
:101B800000100140DF419F0400B58FB0282105A857
:101B9000FEF71AFB14216846FEF716FB4FF480503F
:101BA000FFF7A0FE0420FFF79DFE4AF2A000009080
:101BB00009200190032002900020039069460E48FE
:101BC000FFF79EFE002005904FF4827006900020E3
:101BD0000790089009904FF400700A9020200B9015
:101BE00000200C900D900A200E9005A90348FFF7E5
:101BF0002FFF0FB000BD0000000801400030014081
:101C000010B50F480F4908604FF4827048600021FA
:101C10000C488160C16002210161012141614902DA
:101C200081610821C16100210162416281620A2152
:101C3000C162FFF789FD08B1FEF7D4FF10BD0000B7
:101C4000003800401000002000BFFEE700BFFEE7A4
:101C50007047000008B508490968C9084FF47A724E
:101C6000B1FBF2F14143009100BF00BF00994A1E51
:101C700000920029F9D108BD0C00002070B505467E
:101C80000C46164610491148FFF7D2FE032000F01B
:101C90005DF8C4F3074000F059F8C4F3072000F0E2
:101CA00055F8E0B200F052F804E0FF2000F04EF8E2
:101CB00028706D1C301EA6F101018EB2F5D10249CB
:101CC0000248FFF7C1FE70BD10001004000C014077
:101CD00010B500BF0548006840F0400003490860A7
:101CE00000BF03490348FFF7AFFE10BD00380040B6
:101CF00010001004000C01402DE9F04100240025E3
:101D0000002600270F491048FFF792FE9F2000F0A1
:101D10001DF8FF2000F01AF80546FF2000F016F825
:101D20000646FF2000F012F8074606490648FFF76E
:101D30008BFE280440EA062040EA07042046BDE85E
:101D4000F081000010001004000C0140014600BFAB
:101D500000BF0A488068C0F340000028F8D0074858
:101D6000017300BF00BF00BF0448806800F001009D
:101D70000028F8D000BF0148007B704700380040C1
:101D8000704710B5FFF7DCF810BD00B58FB0282103
:101D900005A8FEF719FA14216846FEF715FA012086
:101DA0000590000406904000079001200990022051
:101DB0000C90C1030D914FF460110E9105A8FFF72F
:101DC00091FA08B1FEF70EFF0F200090022001905B
:101DD000002002904FF480600390002004900221C4
:101DE0006846FFF76FF908B1FEF7FCFE0FB000BDC3
:101DF000704700BFFEE7000002480068C0F3022001
:101E0000704700000CED00E010B5002804DB0A0765
:101E1000130E054A135406E00A07140E034A00F095
:101E20000F031B1FD45410BD00E400E018ED00E0C8
:101E30008EB0FFF791F8FFF7A8FFFFF73BFEFFF723
:101E4000A3FEFFF7DDFE0020FEF7FEFC9448D4233E
:101E50006822002100900846FEF74AFBFEF730FD9D
:101E600040F6B830FEF7C2FE0120FEF713FA00225A
:101E700011461046FEF7FEFB022000230A2201460F
:101E800000901846FEF7C0FB022001230A2204211D
:101E900000900020FEF7B8FB00200221CDE90001F0
:101EA0000A231A4610210290FEF73CFC0020022172
:101EB00001220A23CDE9002102901A4610211420A4
:101EC000FEF730FC77A0002101230222CDE90010AB
:101ED0001E210020FEF784FD7548012102222923DE
:101EE000CDE900210290682232210020FEF73CFA61
:101EF00070A0002101230222CDE9001064210020FE
:101F0000FEF76EFD6FA0002101230222CDE9001033
:101F100074211420FEF764FD6DA00021012302222C
:101F2000CDE9001084212C20FEF75AFD69A0002184
:101F300001230222CDE9001094212820FEF750FD54
:101F400065A0002101230222CDE90010C321002059
:101F5000FEF746FD61A0002101230222CDE9001019
:101F6000C3211920FEF73CFDFEF7AAFCFFF7B0FEE7
:101F7000FFF7C2FE04465B4884426BD140F6B8309E
:101F8000FEF734FE5848D42368220021009008460A
:101F9000FEF70EFBFEF794FC40F6B830FEF726FE87
:101FA0000120FEF777F95148012100222923CDE9CC
:101FB00000210290682214210020FEF75FFA4CA154
:101FC00091E80D00C968CDE90B230D910A904CA151
:101FD00003C9CDE908010AA8002101230222CDE9A5
:101FE00000105A210520FEF71FFD08A8002101233B
:101FF0000222CDE900106E212520FEF715FD2DA34C
:10200000D3E901021968DB68CDE90623CDE90410A4
:1020100004A8002101230222CDE900108C21052013
:10202000FEF702FD2CA0002101230222CDE90010C1
:10203000C3210020FEF7F8FC054628A0002101235B
:102040000222CDE90010C3212846FEF7EDFCFEF781
:1020500037FC22E00120FEF71DF92BA0002101230F
:102060000222CDE9001050210020FEF7B9FC29A082
:10207000002101230222CDE9001064210020FEF797
:10208000AFFC26A0002101230222CDE90010782117
:102090000020FEF7A5FCFEF713FC00BFFEE70000E2
:1020A00040230008464F4E5420544553540000002E
:1020B0002B2100085549443A31313232323231361F
:1020C0003200000044657369676E656400000000BB
:1020D000427900004259540046563A00322E302EC2
:1020E000300000001740EF0085B80B0070B60B0001
:1020F000B2BBB0AEBAFAC2DCB2B7B5C400000000E1
:10210000B2D6CAF300000000496E636F7272656355
:1021100074200000466C6173680000006D6F646598
:102120006C000000081C3044586C80000000000067
:102130000000000000000000000000080000000097
:1021400000000000000000001C0000000000000073
:102150000000000000380000000000000000000146
:1021600000003000000000000000000001C000601E
:10217000001C0000003C00000001F000E0007C00BA
:1021800000007C000000007C01C0003C0000807862
:10219000000180001F0180003C0003C07800038024
:1021A00000078380003C0001C0780003800003E743
:1021B00000083C0001C07C0003807FFFFFFFFC3C67
:1021C0000001C03C000380600000000C3C0009C01E
:1021D0003C001380600000000C1C002DCB3C0079FB
:1021E0009E67FFFFFFCC1C002DCB3C00799E6FFF4C
:1021F000FFFFCC1C003CCB3C0069DE6C000000CC37
:102200001E003CCB3C0029DE6C000000CC1E000010
:10221000C01C0001C06C000000CC1E001CC01C00D3
:1022200039C06C000180CC1E001CEF1C003DCE6C40
:102230000E01E0CC0E001CEF1C003DCE6C7C00F0CB
:10224000CC0FE01EEF1FC01CCE6CF0003CCC0FFE8C
:102250001EE71FFE1CCE6CC0000ECC0FFF8EE71FCA
:10226000FF9CCE6C000000CC0FBFEE671FBFDCCE22
:102270006C021080CC0F87EE671F8FDCCE6C0638A7
:10228000C0CC0FC7EE670F8FCCCE6C073980CC0F58
:10229000CFCE670F9F8EEE6C03FF80CC0FFF86675B
:1022A0000FBF0E4E6C01EF00CC07FE04070FFE08B7
:1022B0000E6C000000CC07F800000FF000006C006E
:1022C0000000CC04000000080000006FFFFFFFCCFE
:1022D000000000000000000067FFFFFFCC000000CE
:1022E0000000000000600000000C00000000000082
:1022F00000007FFFFFFFFC0000010A50A800007FE4
:10230000FFFFFFFC155551C21C2023140660000C72
:10231000C0155551AA54A854AA07E0000F800E38E2
:10232000E1AA54A844AA03C00007800A28A4CA5CF2
:10233000A9732A0000000000000000000000000057
:10234000FFFFFFFFFFFFFFFFFFFFFFFFFFFFFFFF9D
:10235000FFFFFFFFFFFFFFFFFFFFFFFFFFFFFFFF8D
:10236000FFFFFFFFFFFFFFFFFFFFFFFFFFFFFFFF7D
:10237000FFFFFFFFFFFFFFFFFFFFFFFFFFFFFFFF6D
:10238000FFFFFFFFFFFFFFFFFFFFFFFFFFFFFFFF5D
:10239000FFFFFFFFFFFFFFFFFFFFFFFFFFFFFFFF4D
:1023A000FFFFFFFFFFFFFFFFFFFFFFFFFFFFFFFF3D
:1023B000FFFFFFFFFFFFFFFFFFFFFFFFFFFFFFFF2D
:1023C000FFFFFFFFFFFFFFFFFFFFFFFFFFFFFFFF1D
:1023D000FFFFFFFFFFFFFFFFFFFFFFFFFFFFFFFF0D
:1023E000FFFFFFFFFFFFFFFFFFFFFFFFFFFFFFFFFD
:1023F000FFFFFFFFFFFFFFFFFFFFFFFFFFFFFFFFED
:10240000FFFFFFFFFFFFFFFFFFFFFFFFFFFFFFFFDC
:10241000FFFFFFFFFFFFFFFFFFFFFFFFFFFFFFFFCC
:10242000FFFFFFFFFFFFFFFFFFFFFFFFFFFFFFFFBC
:10243000FFFFFFFFFFFFFFFFFFFFFFFFFFFFFFFFAC
:10244000FFFFFFFFFFFFFFFFFFFFFFFFFFFFFFFF9C
:10245000FFFFFFFFFFFFFFFFFFFFFFFFFFFFFFFF8C
:10246000FFFFFFFFFFFFFFFFFFFFFFFFFFFFFFFF7C
:10247000FFFFFFFFFFFFFFFFFFFFFFFFFFFFFFFF6C
:10248000FFFFFFFFFFFFFFFFFFFFFFFFFFFFFFFF5C
:10249000FFFFFFFFFFFFFFFFFFFFFFFFFFFFFFFF4C
:1024A000FFFFFFFFFFFFFFFFFFFFFFFFFFFFFFFF3C
:1024B000FFFFFFFFFFFFFFFFFFFFFFFFFFFFFFFF2C
:1024C000FFFFFFFFFFFFFFFFFFFFFFFFFFFFFFFF1C
:1024D000FFFFFFFFFFFFFFFFFFFFFFFFFFFFFFFF0C
:1024E000FFFFF800FFFFFFFFF800FFFFF800FFFF0E
:1024F000F800FFFFF800FFFFF800FFFFF800FFFF04
:10250000F800FFFFF800FFFFF800FFFFF800FFFFF3
:10251000F800FFFFF800FFFFF800FFFFF800FFFFE3
:10252000F800FFFFF800FFFFF800FFFFF800FFFFD3
:10275000FFFFF800FFFF0000FFFFF800FFFF000091
:10276000FFFFF800FFFF0000FFFFF800FFFF000081
:10277000FFFFF800FFFF0000FFFFF800FFFF000071
:10278000FFFFF800FFFF0000FFFFF800FFFF000061
:10279000FFFFF800FFFF0000FFFFF800FFFF000051
:1027A000FFFFF800FFFF0000FFFFF800FFFF000041
:1027B000FFFFF800FFFF0000FFFFF800FFFF000031
:1027C000FFFFF800FFFF0000FFFFF800FFFF000021
:1027D000FFFFF800FFFF0000FFFFF800FFFF000011
:1027E000FFFFF800FFFF0000FFFFF800FFFF000001
:1027F000FFFFF800FFFF0000FFFFF800FFFF0000F1
:10280000FFFFF800FFFF0000FFFFF800FFFF0000E0
:10281000FFFFF800FFFF0000FFFFF800FFFFFFFFD2
:10282000F800F800F800F800F800F800F800F800E8
:10283000F800F800F800F800F800F800F800F800D8
:10284000F800F800F800F800F800F800F800F800C8
:10285000F800F800F800F800F800F800F800F800B8
:10286000F800F800F800F800F800F800F800F800A8
:10287000F800F800F800F800F800F800F800F80098
:10288000F800F800F800F800F800F800F800F80088
:10289000F800F800F800F800F800F800F800F80078
:1028A000F800F800F800F800F800F800F800F80068
:1028B000F800F800F800F800F800F800F800F80058
:1028C000F800F800F800F800F800F800F800F80048
:1028D000F800F800F800F800F800F800F800F80038
:1028E000F800F800F800F800F8000000F800F80020
:1028F000F800F8000000F800F8000000F800F80008
:10290000F8000000F800F800F8000000F800F800F7
:10291000F8000000F800F800F8000000F800F800E7
:10292000F8000000F800F800F8000000F800F800D7
:10293000F8000000F800F800F8000000F800F800C7
:10294000F8000000F800F800F8000000F800F800B7
:10295000F8000000F800F800F8000000F800F800A7
:10296000F8000000F800F800F8000000F800F80097
:10297000F8000000F800F800F8000000F800F80087
:10298000F8000000F800F800F8000000F800F80077
:10299000F8000000F800F800F8000000F800F80067
:1029A000F8000000F800F800F8000000F800F80057
:1029B000F8000000F800F800F800F800F800F8004F
:1029C000F800F800F800F800F800F800F800F80047
:1029D000F800F800F800F800F800F800F800F80037
:1029E000F800F800F800F800F800F800F800F80027
:1029F000F800F800F800F800F800F800F800F80017
:102A0000F800F800F800F800F800F800F800F80006
:102A1000F800F800F800F800F800F800F800F800F6
:102A2000F800F800F800F800F800F800F800F800E6
:102A3000F800F800F800F800F800F800F800F800D6
:102A4000F800F800F800F800F800F800F800F800C6
:102A5000F800F800F800F800F800F800F800F800B6
:102A6000F800F800F800F800F800F800F800F800A6
:102A7000F800F800F800F800F800F800F800F80096
:102A8000F800F800F800F800F800F800F800F80086
:102A9000F800F800F800F800F800F800F80000006E
:102AA000F800F800F8000000F800F800F800000056
:102AB000F800F800F8000000F800F800F800000046
:102AC000F800F800F8000000F800F800F800000036
:102AD000F800F800F8000000F800F800F800000026
:102AE000F800F800F8000000F800F800F800000016
:102AF000F800F800F8000000F800F800F800000006
:102B0000F800F800F8000000F800F800F8000000F5
:102B1000F800F800F8000000F800F800F8000000E5
:102B2000F800F800F8000000F800F800F8000000D5
:102B3000F800F800F8000000F800F800F8000000C5
:102B4000F800F800F8000000F800F800F8000000B5
:102B5000F800F800F8000000F800F8000000F800A5
:102B6000F8000000F800F8000000F800F800FFFF8F
:102B7000F800F800F800FFFFF800F800F800FFFF89
:102B8000F800F800F800FFFFF800F800F800FFFF79
:102B9000F800F800F800FFFFF800F800F800FFFF69
:102BA000F800F800F800FFFFF800F800F800FFFF59
:102BB000F800F800F800FFFFF800F800F800FFFF49
:102BC000F800F800F800FFFFF800F800F800FFFF39
:102BD000F800F800F800FFFFF800F800F800FFFF29
:102BE000F800F800F800FFFFF800F800F800FFFF19
:102BF000F800F800F800FFFFF800F800F800FFFF09
:102C0000F800F800F800FFFFF800F800F800FFFFF8
:102C1000F800F800F800FFFFF800F800F800FFFFE8
:102C2000F800F800F800FFFFF800F800F800F800DE
:102C3000F800F800FFFFF800F800F800F800F800CE
:102C4000F8000000F800F800F8000000F800F800B4
:102C5000F8000000F800F800F8000000F800F800A4
:102C6000F8000000F800F800F8000000F800F80094
:102C7000F8000000F800F800F8000000F800F80084
:102C8000F8000000F800F800F8000000F800F80074
:102C9000F8000000F800F800F8000000F800F80064
:102CA000F8000000F800F800F8000000F800F80054
:102CB000F8000000F800F800F8000000F800F80044
:102CC000F8000000F800F800F8000000F800F80034
:102CD000F8000000F800F800F8000000F800F80024
:102CE000F8000000F800F800F8000000F800F80014
:102CF000F8000000F800F800F800F800F800F8000C
:102D0000F800F800F800F800F800F8000000F800FB
:102D1000F800F800F800F800F800F800F800F800F3
:102D2000F800F800F800F800F800F800F800F800E3
:102D3000F800F800F800F800F800F800F800F800D3
:102D4000F800F800F800F800F800F800F800F800C3
:102D5000F800F800F800F800F800F800F800F800B3
:102D6000F800F800F800F800F800F800F800F800A3
:102D7000F800F800F800F800F800F800F800F80093
:102D8000F800F800F800F800F800F800F800F80083
:102D9000F800F800F800F800F800F800F800F80073
:102DA000F800F800F800F800F800F800F800F80063
:102DB000F800F800F800F800F800F800F800F80053
:102DC000F800F800F800F800F8000000F800F8003B
:102DD000F800F8000000F800F800FFFFF800F80025
:102DE000F800F800F8000000F800F800F800000013
:102DF000F800F800F8000000F800F800F800000003
:102E0000F800F800F8000000F800F800F8000000F2
:102E1000F800F800F8000000F800F800F8000000E2
:102E2000F800F800F8000000F800F800F8000000D2
:102E3000F800F800F8000000F800F800F8000000C2
:102E4000F800F800F8000000F800F800F8000000B2
:102E5000F800F800F8000000F800F800F8000000A2
:102E6000F800F800F8000000F800F800F800000092
:102E7000F800F800F8000000F800F800F800000082
:102E8000F800F800F8000000F800F800F800000072
:102E9000F800F800F8000000F800F800FFFFF80064
:102EA000F800F800F800F8000000F800F800F8005A
:102EB0000000F800FFFFF800F800F800FFFFF8003E
:102EC000F800F800FFFFF800F800F800FFFFF80036
:102ED000F800F800FFFFF800F800F800FFFFF80026
:102EE000F800F800FFFFF800F800F800FFFFF80016
:102EF000F800F800FFFFF800F800F800FFFFF80006
:102F0000F800F800FFFFF800F800F800FFFFF800F5
:102F1000F800F800FFFFF800F800F800FFFFF800E5
:102F2000F800F800FFFFF800F800F800FFFFF800D5
:102F3000F800F800FFFFF800F800F800FFFFF800C5
:102F4000F800F800FFFFF800F800F800FFFFF800B5
:102F5000F800F800FFFFF800F800F800FFFFF800A5
:102F6000F800F800FFFFF800F800F800F800F8009B
:102F7000F800F800F800F800F800F800F800F80091
:102F8000F800F800F800F800F8000000F800F80079
:102F9000F8000000F800F800F8000000F800F80061
:102FA000F8000000F800F800F8000000F800F80051
:102FB000F8000000F800F800F8000000F800F80041
:102FC000F8000000F800F800F8000000F800F80031
:102FD000F8000000F800F800F8000000F800F80021
:102FE000F8000000F800F800F8000000F800F80011
:102FF000F8000000F800F800F8000000F800F80001
:10300000F8000000F800F800F8000000F800F800F0
:10301000F8000000F800F800F8000000F800F800E0
:10302000F8000000F800F800F8000000F800F800D0
:10303000F8000000F800F800F800F8000000F800C0
:10304000F8000000FFFFF800F800F8000000F800AA
:10305000F800F8000000F800F800F800F800F800A8
:10306000F800F800F800F800F800F800F800F800A0
:10307000F800F800F800F800F800F800F800F80090
:10308000F800F800F800F800F800F800F800F80080
:10309000F800F800F800F800F800F800F800F80070
:1030A000F800F800F800F800F800F800F800F80060
:1030B000F800F800F800F800F800F800F800F80050
:1030C000F800F800F800F800F800F800F800F80040
:1030D000F800F800F800F800F800F800F800F80030
:1030E000F800F800F800F800F800F800F800F80020
:1030F000F800F800F800F800F800F800F800F80010
:10310000F800F800F800F800F800F800F800F800FF
:10311000F800F800F800F800F800F800F800FFFFE9
:10312000F800F800F800F800F800F800F8000000D7
:10313000F800F800F8000000F800F800F8000000BF
:10314000F800F800F8000000F800F800F8000000AF
:10315000F800F800F8000000F800F800F80000009F
:10316000F800F800F8000000F800F800F80000008F
:10317000F800F800F8000000F800F800F80000007F
:10318000F800F800F8000000F800F800F80000006F
:10319000F800F800F8000000F800F800F80000005F
:1031A000F800F800F8000000F800F800F80000004F
:1031B000F800F800F8000000F800F800F80000003F
:1031C000F800F800F8000000F800F800F80000002F
:1031D000F800F800F8000000F800F800F800F80027
:1031E000F800F800F800F8000000F800F800F80017
:1031F0000000F800F800FFFF0000F800F800F800F9
:10320000FFFFF800F800F800FFFFF800F800F800F2
:10321000FFFFF800F800F800FFFFF800F800F800E2
:10322000FFFFF800F800F800FFFFF800F800F800D2
:10323000FFFFF800F800F800FFFFF800F800F800C2
:10324000FFFFF800F800F800FFFFF800F800F800B2
:10325000FFFFF800F800F800FFFFF800F800F800A2
:10326000FFFFF800F800F800FFFFF800F800F80092
:10327000FFFFF800F800F800FFFFF800F800F80082
:10328000FFFFF800F800F800FFFFF800F800F80072
:10329000FFFFF800F800F800FFFFF800F800F80062
:1032A000FFFFF800F800F800FFFF0000F800F8004A
:1032B000F800F800F800F800F800F800F800F8004E
:1032C000F800F800F800F800F800F800F800F8003E
:1032D000F8000000F800F800F8000000F800F8001E
:1032E000F8000000F800F800F8000000F800F8000E
:1032F000F8000000F800F800F8000000F800F800FE
:10330000F8000000F800F800F8000000F800F800ED
:10331000F8000000F800F800F8000000F800F800DD
:10332000F8000000F800F800F8000000F800F800CD
:10333000F8000000F800F800F8000000F800F800BD
:10334000F8000000F800F800F8000000F800F800AD
:10335000F8000000F800F800F8000000F800F8009D
:10336000F8000000F800F800F8000000F800F8008D
:10337000F8000000F800F800F800F800F800F80085
:10338000F800F8000000F800FFFFF8000000F80067
:10339000F800F8000000F800F800F8000000F8005D
:1033A000F800F800F800F800F800F800F800F8005D
:1033B000F800F800F800F800F800F800F800F8004D
:1033C000F800F800F800F800F800F800F800F8003D
:1033D000F800F800F800F800F800F800F800F8002D
:1033E000F800F800F800F800F800F800F800F8001D
:1033F000F800F800F800F800F800F800F800F8000D
:10340000F800F800F800F800F800F800F800F800FC
:10341000F800F800F800F800F800F800F800F800EC
:10342000F800F800F800F800F800F800F800F800DC
:10343000F800F800F800F800F800F800F800F800CC
:10344000F800F800F800F800F800F800F800F800BC
:10345000F800F800F800F800F800F800F800F800AC
:10346000F800FFFFF800F800F800F800FFFFF80090
:10347000F800F800F8000000F800F800F80000007C
:10348000F800F800F8000000F800F800F80000006C
:10349000F800F800F8000000F800F800F80000005C
:1034A000F800F800F8000000F800F800F80000004C
:1034B000F800F800F8000000F800F800F80000003C
:1034C000F800F800F8000000F800F800F80000002C
:1034D000F800F800F8000000F800F800F80000001C
:1034E000F800F800F8000000F800F800F80000000C
:1034F000F800F800F8000000F800F800F8000000FC
:10350000F800F800F8000000F800F800F8000000EB
:10351000F800F800F8000000F800F8000000F800DB
:10352000F800F800F800F8000000F800F800F800D3
:103530000000F800F800F8000000F800F800F800BB
:103540000000F800F800F800FFFFF800F800F800AD
:10355000F800FFFFF800F800F800F800FFFFF8009F
:10356000F800F800F800F800F800FFFFF800F80095
:10357000F800F800FFFFF800F800F800F800FFFF7F
:10358000F800F800F800F800FFFFF800F800F80075
:10359000F800FFFFF800F800F800F800FFFFF8005F
:1035A000F800F800FFFFF800F800F800FFFFF8004F
:1035B000F800F800FFFFF800F800F800FFFFF8003F
:1035C000F800F800FFFFF800F800F800FFFFF8002F
:1035D000F800F800FFFFF800F800F800F800FFFF1F
:1035E000F800F800F800F800FFFFF800F800F80015
:1035F000F800F8000000F800F800F800F800F80003
:10360000F800F800F800F800F800F800F800F800FA
:10361000F800F800F800F800F8000000F800F800E2
:10362000F8000000F800F800F800FFFFF800F800CC
:10363000F8000000FFFFF800F800F8000000F800B4
:10364000F800F800F800F800F8000000F800F800B2
:10365000F8000000F800F800F8000000F800F8009A
:10366000F8000000F800F800F8000000FFFFFFFF7E
:10367000F8000000F800F800F8000000F800F8007A
:10368000F8000000F800F800F8000000F800F8006A
:10369000F8000000F800F800F8000000F800F8005A
:1036A000F8000000F800F800F8000000F800F8004A
:1036B000F8000000F800F800F800F800F800F80042
:1036C000F800F800FFFFF800F800F800FFFFF8002E
:1036D000F800F8000000F800F800F8000000F8001A
:1036E000F800FFFF0000F800F800F800F800FFFF06
:1036F000F800F800F8000000F800F8000000F800FA
:10370000F800F800F8000000F800FFFFF800F800EB
:10371000F800F8000000F800F800F800F800F800E1
:10372000F800F800F800F800F800F800F800F800D9
:10373000F800F800F800F800F800F800FFFFFFFFBD
:10374000F800F800F800F800F800F800F800F800B9
:10375000F800F800F800F800F800F800F800F800A9
:10376000F800F800F800F800F800F800F800F80099
:10377000F800F800F800F800F800F800F800F80089
:10378000F800F800F800F800F8000000F800F80071
:10379000F800F800F800F8000000F800F800000059
:1037A000F800F800FFFFF800F800F800F800F80053
:1037B000F800F800F800F800F800F800F800000041
:1037C000F800F800F800F800F800F800FFFFF80033
:1037D000F800FFFFF800F800FFFFF800F800F8001D
:1037E0000000F800F800F800F800FFFFF800000003
:1037F000F800F800FFFF0000F800F800F800FFFFF5
:103800000000F800F800F800F800F800F800F800F0
:10381000F800F800F8000000F800F800F8000000D8
:10382000F800F800F8000000F800F800F8000000C8
:10383000F800F800F8000000F800F800F8000000B8
:10384000F800F800F8000000F800FFFFF8000000A2
:10385000F800F800FFFF0000F800F800F800F8009A
:10386000F8000000F800F800F800F800F800F80090
:10387000F800F800F800F8000000F800FFFFF8007A
:103880000000F800F800F8000000F800F800F80068
:10389000FFFFF800F800FFFFF800F800F800000054
:1038A000F800F800F800F800F8000000F800F80050
:1038B000FFFFF800F800F8000000F800F800F8003A
:1038C000F800F800F800F800F8000000F800F80030
:1038D000F800F8000000FFFFF8000000F800F80012
:1038E0000000F800F800F800F800F800F800F80010
:1038F000FFFFF800F800F800FFFFF800F800F800FC
:10390000FFFFF800F800F800FFFFF800F800F800EB
:10391000F800FFFFF800F800F800F800F800F800E1
:10392000F800F800F800F800F800F800F800F800D7
:10393000F800F800F800F800F800F800F800F800C7
:10394000F8000000F800F800F800F800F800F800AF
:10395000F800F800F800F800F800F800F800F800A7
:10396000F800F8000000F800F800F800F800F8008F
:10397000F800FFFFF800F800F800F800F800FFFF7B
:10398000F800F800F800F800F800F800F800F80077
:10399000F8000000F800F800F800F800F800F8005F
:1039A000F800F800F800F800F800F800F800F80057
:1039B000F800F800FFFFF800F8000000F800F80039
:1039C000F8000000F800F800F8000000F800F80027
:1039D000F8000000F800F800F8000000F800F80017
:1039E000F8000000F800F800F8000000F800F80007
:1039F000F8000000F800F800F800F800FFFFF800F9
:103A0000F800F800F8000000F800F8000000FFFFE0
:103A1000F800F800F800F800F800F8000000F800DE
:103A2000F800F8000000F800F800FFFFF8000000C0
:103A3000F800F800F800F800FFFF0000F800F800B8
:103A4000F800F800F8000000F800FFFFF8000000A0
:103A5000F800F8000000F800F800F8000000FFFF90
:103A6000F800F800F800F800F800F800F80000008E
:103A7000F800F800F800F800F800F800F800F80086
:103A8000F800F8000000F800F800FFFFF800F80068
:103A9000F800F800F800F800F800F800F800F80066
:103AA000F800F800F800F800F800F800F800F80056
:103AB000F800F800F800F800F800F800F800FFFF40
:103AC000F800F800F800F800F800F8000000F8002E
:103AD000F800F800F800FFFFF800F800F800F80020
:103AE000F800F800F8000000FFFFF800F800F80008
:103AF000FFFFF800F800F800FFFFF8000000F800F2
:103B0000F800F800F800F800F800F800F800F800F5
:103B1000FFFF0000F800F800FFFFF800F800F800D1
:103B2000F800F800F800FFFFF800F800F800F800CF
:103B3000F800F800F8000000FFFFF800F800F800B7
:103B4000F800F8000000F800F8000000FFFFF8009F
:103B50000000F800F800F800F800F800F800000095
:103B6000F800F800F8000000F800F800F800000085
:103B7000F800F800F8000000F800F800F800FFFF77
:103B80000000F800F800F800F800F800F800000065
:103B9000F800F800F8000000F800F800F800F8005D
:103BA000F8000000F800F800F800F800F800F8004D
:103BB0000000F800F800F800F800F800F800F8003D
:103BC0000000F800FFFFF800F800F800FFFFF80021
:103BD000F800FFFFF8000000F800F800F80000000F
:103BE000F800F800F800F800F8000000F800F8000D
:103BF000F800F800F800F8000000F800F800F800FD
:103C00000000F800F800F800F8000000F800F800E4
:103C1000F800F800FFFFF800F800F800F800F800DE
:103C2000F800F800F800F8000000F800F800F800CC
:103C3000F800F800FFFFF800F800F800F800FFFFB8
:103C4000F800F800F800F800F8000000F800F800AC
:103C5000F800F800F800FFFF0000F800F800F80096
:103C6000F800F800F800FFFFF800F800F800F8008E
:103C7000F800F800F800F8000000F800F800F8007C
:103C8000F800F800F800F800F8000000F800F8006C
:103C9000F800F800F8000000F800F800F800F8005C
:103CA000F8000000F800F800F800F800F800F8004C
:103CB000F800F800F800F800F800F800F800FFFF3E
:103CC0000000F800F800F800F800F800F800F8002C
:103CD000F800F800F800F800F800F800F800FFFF1E
:103CE0000000F800F800F800F800F800F800F8000C
:103CF000F800F800F800F800F800F800F800F80004
:103D0000F8000000F800F800F8000000F800F800E3
:103D1000F8000000FFFFF800FFFFF800F800F800CF
:103D2000F800F8000000F800F800F800F800F800CB
:103D3000F8000000F800F800F8000000F800F800B3
:103D4000F800F800F800F800F800F8000000F800AB
:103D5000F800FFFF0000F800F800F800F800F80095
:103D6000F800F800F800F800F800F8000000F8008B
:103D7000F800F800F800F800FFFF0000F800F80075
:103D8000FFFFF800F8000000FFFFF800F800F8005F
:103D9000F800F8000000F800F800F8000000F80053
:103DA000F800FFFF0000F800F800F800F800F80045
:103DB000F800F800F800F8000000F800F800000033
:103DC000F800FFFF0000F800F800FFFF0000F80017
:103DD000F800F800F800F800FFFFF800F800F8001D
:103DE000F800F800F800F800F800F800F80000000B
:103DF000F800F800F800F800F800F8000000F800FB
:103E0000F800F800F800F800F800F800F800F800F2
:103E1000F800F800F800FFFFF800F800F800F800DC
:103E2000F800F800F800F800F800F800F8000000CA
:103E3000F800F800F800F800F800FFFFF800F800BC
:103E4000F800F800F800F800F800F800F800FFFFAC
:103E50000000F800F800F800F800F8000000F80092
:103E6000F800FFFFF800F800F800FFFFF800F80086
:103E7000F800F800F800F800F8000000F800F8007A
:103E8000F800F8000000F800F800F800F800F8006A
:103E9000F800F800F800F800F800F800F800F80062
:103EA000F800F8000000F800F800F800F800FFFF44
:103EB000F800F800F8000000F800F800F800F8003A
:103EC000F800F800F800F800F800F800FFFFF8002C
:103ED000F800F800F8000000F800F800FFFFF80014
:103EE000F8000000F800F8000000F800FFFFF800FC
:103EF0000000F800F800F8000000F800F800FFFFEC
:103F0000F8000000F800F8000000F800FFFFF800DB
:103F1000FFFFF800F8000000F800F800F800F800D3
:103F2000F800F800F800F800F800F800F800F800D1
:103F3000F800F800F800F8000000F800F800F800B9
:103F40000000F800F800F800FFFFF800F80000009B
:103F5000F800F800F800F800F800F800FFFFF8009B
:103F6000F800F800F8000000F800F800F800000081
:103F7000F800F800FFFFF800F8000000F800F80073
:103F80000000FFFFF800F800F800FFFFF800F8005D
:103F9000F8000000FFFFF8000000F800F800F8004B
:103FA0000000F800FFFFF800F8000000F800F8003B
:103FB000F800F800F800F800F800F800F800F80041
:103FC000F800F800F800F800FFFFF800F800F8002B
:103FD000F800FFFFF800F800F800F800F800000013
:103FE000F800F800FFFFF800F800F8000000F80003
:103FF000F800FFFF0000F800F800FFFFF800F800ED
:104000000000F800F800F800F800F800F800F800E8
:10401000F800F800F8000000F800F800F800F800D8
:10402000F800FFFFF800F8000000F800F8000000BA
:10403000F800F800F800F800F800F800F800FFFFBA
:10404000F800F800F800F800F800F800F800F800B0
:10405000F800F800F800F8000000F800F800000090
:10406000F800F800F800F800F800F800F800F80090
:10407000F800F800F800F800F800F800F800F80080
:10408000F800F800F800F800F800F8000000F80068
:10409000F800F8000000F800F800F8000000F80050
:1040A000F800F800F800FFFFF800F800F800F8004A
:1040B000F8000000F800F800FFFFF800F800FFFF2C
:1040C000F800F800F800F800F8000000F800FFFF22
:1040D000F800FFFF0000F800F800F8000000F8000A
:1040E000F800F800F800F800F800F800F800F80010
:1040F000F8000000F800F800F800F800F800F800F8
:10410000F8000000F800FFFFF8000000F800F800D9
:10411000F800F8000000FFFFF800F800FFFF0000C3
:10412000F800F800F800F800FFFFF800F800F800C9
:10413000F800F800F800F800F800F8000000F800B7
:10414000F800F8000000F800F800F800F800F800A7
:10415000F800F8000000F800F800F800F800F80097
:10416000F800FFFFF800F800F800F800F800F80089
:10417000F8000000F800F8000000F800F800F8006F
:10418000F800F800F800FFFF0000F800F800F80061
:104190000000F800F800F800FFFFF800F800F80051
:1041A000F800F800F800F800F800FFFFF800F80049
:1041B000F800FFFF0000F800F800F8000000F80029
:1041C000F800F800F800F800FFFFF800F800F80029
:1041D000F800F800F800F800F800F800F800F8001F
:1041E0000000F800F800F800F8000000F800F800FF
:1041F000F800FFFF0000F800F800F800F800FFFFEB
:10420000F800F8000000F800F800FFFFF800F800E0
:10421000F800F800F800F800F8000000F800F800D6
:10422000F800F800F800F800FFFFF800F800F800C8
:104230000000F800F800F8000000F800F800F800AE
:10424000F800F800F800FFFFF800FFFFF80000009A
:10425000F800F800F800F800F800F800FFFFF80098
:10426000F800F800F8000000F800F800F800FFFF80
:10427000F800F800F800F800F800F800F800000076
:10428000F800F800F800F800F800F800FFFFF80068
:10429000F800F800F8000000F800F8000000F8004E
:1042A000F800F800F8000000F800F800F800F80046
:1042B000F800F800FFFFF800F800F800F800F80038
:1042C000F800F800F800F800F800F800F800000026
:1042D000F800F800F800F8000000F800F800FFFF10
:1042E0000000F800F800F800FFFFF800F800F80000
:1042F000F800F800F8000000F800F8000000F800EE
:10430000F800F800F800F800F800F800FFFF0000DF
:10431000F800F800FFFFF800F800F800F800F800D7
:10432000FFFFF8000000F800F800F8000000F800B7
:10433000F800F800F800F800FFFFF8000000F800AF
:10434000F8000000F800F8000000F800F800F8009D
:10435000F800F800F800F8000000F800F800F80095
:104360000000F800F800F800F800F800F800FFFF7F
:10437000F8000000F800F800F800F8000000FFFF67
:10438000F800F800F8000000F800FFFFF800F8005F
:10439000FFFFF800F800F8000000FFFFF800F80049
:1043A000F800F800F800F800F800F800F800F8004D
:1043B000F800F800F8000000F800F800F800F80035
:1043C000FFFFF800F800F800F800F800F800F80027
:1043D000F800F8000000F800F800F800F800F80015
:1043E000F800F8000000F800F8000000FFFFF800F7
:1043F000F800F800F800F800F800F800F800F800FD
:104400000000FFFFF800F800F800F800FFFFF800D8
:10441000F800F800F800F800F800F800F800F800DC
:10442000F8000000F800F800F800F800F800F800C4
:10443000F800FFFFF800F800F800F800F800F800B6
:10444000F800F800FFFFF800F800F800F800F800A6
:10445000F800FFFFF800F800F800F8000000F8008E
:10446000F8000000F800FFFFF800F800F800F8007E
:10447000F8000000FFFFF800F800F8000000F80066
:10448000F800F800F800F800F8000000F800F80064
:10449000F800F800F800F800F800F800FFFFF80056
:1044A000F800F800FFFFF800F8000000F800F8003E
:1044B000F800F800F800F800F800F800F800F8003C
:1044C0000000F800F800F8000000F800F800F8001C
:1044D000F800F800F8000000FFFFF800F800F8000E
:1044E000F800F800F800FFFFF800F8000000FFFFF8
:1044F000F800F800F800FFFFF800F8000000F800EE
:10450000F800F8000000F800F8000000F800F800DB
:10451000F800F800F800F8000000F800F800F800D3
:104520000000F800F800F800F800F800F800F800C3
:10453000F800F800F800F800F800F8000000F800B3
:10454000F800F800F800F800F800F800F800F800AB
:10455000F8000000FFFFF800F800F800F800F8008D
:10456000F800F8000000F800F8000000F800F8007B
:104570000000F800F800F800F800F800F800F80073
:104580000000F800F800F800F800F800F800F80063
:10459000FFFFF800F800F800FFFFF800F800F8004F
:1045A000FFFFF800F800F800F8000000F800F8003D
:1045B0000000F800F8000000F800F800F800F8002B
:1045C000F800F800F8000000F800F800F800F80023
:1045D000F800F800F800F800FFFFF800F800F80015
:1045E000F8000000F800F800F800F800F800F80003
:1045F000F800F800F800FFFF0000F800F800F800ED
:10460000F800FFFFF8000000FFFFF800F800F800D6
:10461000F800F800F800F8000000F800F800F800D2
:10462000F800F800F800F800F800F800F800F800CA
:10463000F800F800F800FFFFF800F800F800F800B4
:10464000F800F800F8000000F800F800F800FFFF9C
:10465000F800F800F8000000F800F800FFFFFFFF86
:10466000FFFFFFFF0000F800F800F8000000F8006E
:10467000F800F800F800F800F800F800F800F8007A
:10468000F800F800F800F800F800F800F800F8006A
:104690000000F800F800F800F800F800F800F80052
:1046A0000000F800F800F800F800F8000000F8003A
:1046B000F800F800F800F800F800FFFF0000F8002C
:1046C000F800F8000000F800F800F800FFFF000014
:1046D000F800F800F800F800F800F800F800F8001A
:1046E000FFFF0000F800F800F800FFFFF8000000EE
:1046F000F800F800F8000000F800F800FFFFF800EC
:10470000F800F800F800F800F800F800F800F800E9
:10471000F800F800F800F800F800F8000000F800D1
:10472000F800F800F800F800F800F8000000FFFFBB
:10473000FFFFF800F800F800FFFFF800F800F800AD
:10474000FFFFF800F8000000F800F800F800F8009B
:10475000FFFFF800F800F800F8000000F800FFFF85
:10476000F800F800F800F800F8000000F800FFFF7B
:10477000F800F800F8000000F800F800F800F80071
:10478000F800F800F8000000F800F800F800F80061
:10479000F800F800F800F800F800F800F800F80059
:1047A000F800F8000000F800F800F800F800000039
:1047B000F800F800F800F800F800F800F800F80039
:1047C000F800F800F800F800F800F8000000F80021
:1047D000F800F8000000F800F8000000F800F80009
:1047E0000000FFFFF800F800F800F800F800F800FB
:1047F000F8000000FFFFF800F800F800F800F800EB
:10480000F800F800F800F8000000F800F800F800E0
:104810000000F800F800F800F800F8000000F800C8
:10482000F8000000F800F800F800FFFFFFFFFFFFAE
:10483000F800F8000000F800FFFFF800F800F800AA
:10484000F800F800F800F800F800F800FFFFFFFF9C
:104850000000F800F800F800F800F800F800F80090
:104860000000FFFFF800F800F8000000F800F80072
:10487000F800F800F800F800F8000000F800F80070
:10488000F800F800F8000000F800F800F800F80060
:10489000FFFF0000F800F800F800F800F800F8004A
:1048A000F800F800F800F800F800F800F800F80048
:1048B000F800F800F8000000FFFFF800F800F8002A
:1048C000F800F800F800F8000000F800F800F80020
:1048D000F8000000F800F800F800F800F800F80010
:1048E000F800F800F800F800F800FFFFF800F80002
:1048F000F800F800F8000000F800F800F800F800F0
:10490000F800F800F800F800F800F800F800F800E7
:10491000F8000000FFFFF800F8000000F800FFFFBB
:10492000FFFFF800F800F800F800F8000000F800B9
:10493000F800F800F800F800F800F800F800FFFFB1
:104940000000F800F800F800FFFFF800F800F80099
:10495000F800F800FFFFF800F800F8000000F80089
:10496000F800F800F800FFFF0000F800F800F80079
:10497000F800F800F800F800FFFFF800F800F80071
:10498000F800F800F800F800F8000000F800F8005F
:10499000F800F800F800F800F800F800F80000004F
:1049A000F800F800F800F800F800F8000000F8003F
:1049B000F800F8000000F800F800F800F800F8002F
:1049C000F800F800F800F800F800F8000000F8001F
:1049D000F800F800F800F8000000F800F800000007
:1049E000F800F800F800F800F800F800FFFFFFFFFB
:1049F000FFFFF800FFFFFFFFFFFFFFFFFFFFFFFFCD
:104A0000F800F8000000F800F800F800F800F800DE
:104A1000F800F800F8000000F800F800F800F800CE
:104A20000000F800F800F800F800F800F800F800BE
:104A3000F800F800F800F800F800F800F800F800B6
:104A4000F800F800F8000000F800F8000000F80096
:104A5000F8000000F800F800F800F800FFFF000080
:104A6000F800F8000000F800F800F800F800F8007E
:104A7000F800F800F8000000F800F800FFFFF80068
:104A8000F800F800FFFFF800F800F8000000F80058
:104A9000F8000000FFFFF800F800F800F800F80048
:104AA000F8000000F800F800F800F800F800F8003E
:104AB000F800F800F8000000FFFFF800FFFFFFFF1C
:104AC000FFFFFFFFFFFFFFFFFFFFFFFFFFFFFFFFF6
:104AD000FFFFF800F800F800F800F8000000F80008
:104AE000F800F800F800F800F8000000F800F800FE
:104AF000F800F800F800F8000000FFFFF800F800E8
:104B0000F800F8000000F800F800F800F800F800DD
:104B1000F800F800F800F800F800F800F800FFFFCF
:104B2000F800F800F800F800F800F800F800F800C5
:104B3000F800F800FFFFF800F8000000FFFFF800A1
:104B4000F800F800FFFFF800F800F800F800F8009F
:104B50000000F800F800F8000000F800F800F80085
:104B6000F800F800F800F8000000F800F800F8007D
:104B7000F800FFFFF800F800F800F800F800FFFF69
:104B8000FFFFFFFFFFFFFFFFFFFFFFFFFFFFF8003B
:104B9000FFFFFFFFF800FFFFFFFFF800FFFFFFFF31
:104BA000FFFFF800F8000000FFFFF800F800F80031
:104BB000F8000000FFFFF800F800F800F800FFFF21
:104BC000F800F8000000F800F800F800F800000015
:104BD000F800F800F800F800F8000000F800FFFF07
:104BE000F800FFFF0000F800F800F800F8000000EF
:104BF000F800F800F800F800F8000000F800F800ED
:104C0000F800F800F800F800F800F800F800F800E4
:104C1000F8000000F800F800F8000000F800F800C4
:104C2000F800F800F800F800F800F800F800FFFFBE
:104C3000FFFFF800F800F800F800FFFFF800F800A8
:104C40000000F800F800F800F8000000FFFFFFFF88
:104C5000FFFFFFFFFFFFFFFFFFFFFFFFFFFFFFFF64
:104C6000FFFFFFFFFFFFFFFFFFFFFFFFFFFFF8005A
:104C70000000F800F800F800F800F800F800F8006C
:104C8000F800F800F800F800F800F800F80000005C
:104C9000F800F800F800F800F800F800F800F80054
:104CA000F800F800FFFFF800F800F800F800F8003E
:104CB000F800F800F800F800F8000000F800F8002C
:104CC000F800F8000000FFFFF800F800F800F80016
:104CD0000000F800F8000000F800F800F8000000FC
:104CE000F800F800F800F800F800F800F800F80004
:104CF000F800F8000000F800F800F800FFFFFFFFE0
:104D0000FFFFF8000000F800F800F8000000F800CD
:104D1000F800F800F8000000F800FFFFFFFFFFFFB9
:104D2000F800FFFFFFFFFFFFFFFFF800FFFFFFFF9F
:104D3000F800FFFFF800FFFF0000F800F800F8009F
:104D4000F800F800F800F800F8000000F800F8009B
:104D5000F800F800F8000000F800F800F800F8008B
:104D6000F800F800F800F8000000F800F800F8007B
:104D7000F8000000F800F800F800F800F800F8006B
:104D8000F800F800F800F800FFFFF800F800F8005D
:104D9000F800F800F800F800F800F800F800F80053
:104DA000F800F800F800F800F800F800F800F80043
:104DB000F800F800F8000000F800F800F800000023
:104DC000F800FFFFF800F800F8000000F800FFFF0F
:104DD000FFFFF800F800F800F800F800F800F8000D
:104DE000F800F800F800F800F800F800F800FFFFFD
:104DF000FFFFFFFFF800F800FFFF0000F800FFFFD3
:104E0000FFFFFFFFFFFFF800FFFFFFFF0000F800BC
:104E1000F800F8000000F800F800F800F800FFFFC4
:104E20000000F800F800F800FFFF0000F800F800AC
:104E3000F8000000FFFFF800F800F8000000FFFF96
:104E4000F800F800F800F800F8000000F800F8009A
:104E5000F800F8000000F800F800F800F800F8008A
:104E60000000FFFFF800F8000000F800F800FFFF66
:104E7000F800F800F800FFFFF8000000F800FFFF5E
:104E8000F800F800F800FFFFF800F800F800F8005C
:104E9000F800F800F800F800F800FFFFFFFFFFFF40
:104EA000FFFFF800FFFFFFFFFFFFFFFFFFFFF8001E
:104EB000F8000000F800FFFFF800F800F80000001C
:104EC000F800F8000000F800F800F800FFFFFFFF0E
:104ED000FFFFFFFFFFFFFFFFFFFFFFFFFFFFF800E8
:104EE000F800F800F800F800F800F800F800F80002
:104EF000F800F800F800F800F800F800F800F800F2
:104F0000F800FFFFFFFFF800F800F800F800F800D5
:104F1000F800F8000000F800F800FFFFF800F800C3
:104F2000F800F800F800F800F8000000F800F800B9
:104F3000F800F800F800F800F800F800F8000000A9
:104F4000F800F8000000F800F800F800F800F80099
:104F5000F8000000F800F800F800F800F800F80089
:104F60000000F800F8000000F800F800FFFFF8006B
:104F7000FFFFFFFFFFFFFFFFFFFFFFFFFFFFFFFF41
:104F8000F800F800F800F8000000F800F800F80059
:104F9000F800F800F800FFFFFFFFFFFFFFFFF80039
:104FA000FFFFFFFFF800FFFFFFFFFFFFFFFFF8001D
:104FB0000000F800F800F800FFFFF8000000F8001B
:104FC000F800F8000000F800F800F800F800000011
:104FD000F800F800FFFFFFFF0000F800F800F800FD
:104FE000F800F800F800F800F800F800F800F80001
:104FF000F800F800F800F800F800F800F800F800F1
:10500000F800F8000000F800F800F800F800F800D8
:10501000F800F800F800F800F800F800F8000000C8
:10502000F800F800F800F8000000F800F800F800B8
:10503000FFFFF800FFFFFFFFFFFFFFFFFFFFFFFF86
:10504000FFFFFFFFF800FFFFF800FFFFFFFFF80082
:10505000F800F800F800F800F800F800F800F80090
:10506000F800F800FFFFFFFFFFFFFFFFFFFFFFFF5C
:10507000FFFFFFFFFFFFFFFFF800F800F800F80058
:10508000F800F800F8000000F800F800F800F80058
:10509000F800F800F800F800F800F800F800F80050
:1050A000F800F800F800F800F800F800F800000038
:1050B000F800F800FFFFF8000000F800F800F80022
:1050C000F800F800F8000000F800F800FFFF00000A
:1050D000F800F800F800F800FFFFF8000000F80002
:1050E000F800F800F800F8000000F800F800F800F8
:1050F000F800F800F800F800FFFFF800FFFFFFFFDE
:10510000FFFFFFFFFFFFFFFFFFFFFFFFFFFFFFFFAF
:10511000FFFFFFFFFFFFFFFFFFFFFFFFFFFF00009D
:10512000F800F8000000F800F800F800F800F800B7
:105130000000F800FFFFFFFFFFFFFFFFF800FFFF89
:10514000F800F8000000F800FFFFF8000000F80089
:10515000F800FFFFF800F800F800F800F800F80089
:105160000000F800FFFFF800F8000000FFFFF80063
:10517000F800F8000000F800F800F800F800F80067
:10518000F8000000F800F800F8000000F800F8004F
:10519000F800F800FFFFF800F800F800F800F80049
:1051A000F800F800F800F8000000F800F800F80037
:1051B000FFFF0000F800F800F800FFFFF800F8001B
:1051C000F8000000F800FFFFFFFFFFFFFFFFFFFFF9
:1051D000F800FFFFFFFFF800FFFFF800FFFFF800F7
:1051E000FFFFFFFFFFFFFFFF0000F800F800F800DF
:1051F000F800F800F800FFFFF8000000F800F800E1
:10520000F800F800FFFFF800F800F800FFFF0000CA
:10521000FFFFFFFFFFFFFFFFFFFFFFFFFFFFF800A4
:10522000F8000000F800F800F8000000F800FFFFA8
:10523000F800F800F8000000F800F800F800F800A6
:105240000000F800F800F800F800FFFFF800F80090
:10525000F800F800F800F800F800F800F800F8008E
:10526000F8000000F800F800F8000000F800F8006E
:10527000F8000000F800F800F800F800F800F80066
:10528000F800F800F800F800F800F8000000F80056
:10529000F800F800F800FFFFFFFFFFFFF800FFFF36
:1052A000FFFFFFFFFFFFFFFFFFFFFFFFFFFFFFFF0E
:1052B000FFFF0000F800F800F800F800F800F80020
:1052C000F800F800F800F800F800F800FFFFF80018
:1052D000F800F800F8000000FFFFFFFFFFFFFFFFEE
:1052E000FFFFFFFFFFFFFFFFF800FFFFFFFFFFFFD4
:1052F000F800F800F800F800F800F800F800F800EE
:10530000F800F800F800F800F800F800F800F800DD
:10531000F800F800F800F8000000F800F8000000BD
:10532000F800F800F800F800F800F800F800F800BD
:10533000F800F800F800F800F800F800F800F800AD
:10534000F800FFFFF800F800F800F8000000F8008F
:10535000F800F800F8000000F800F800F800F80085
:10536000F800F800FFFFFFFFF800FFFFFFFFFFFF5F
:10537000FFFFFFFFF800FFFFFFFFFFFFFFFFFFFF43
:10538000F800FFFFF800F800F8000000F800F8004F
:105390000000F800F8000000F800F800F800000035
:1053A000F800F800F800FFFFFFFFFFFFF800FFFF25
:1053B000FFFFF800FFFFFFFFFFFFFFFFF800FFFF09
:1053C000F800F800F8000000F800F800F80000000D
:1053D000FFFFFFFFFFFFF800F8000000F800F800F3
:1053E000F800FFFFF800F800F800F800F800F800F7
:1053F000FFFFF8000000F800FFFF0000F800F800D1
:10540000F800F800F8000000FFFFF800F8000000C6
:10541000F800F800F8000000F800F800F800F800C4
:105420000000F800FFFFF800F800F800F800F800AE
:10543000F800F8000000FFFFFFFFFFFFFFFFFFFF86
:10544000FFFF0000FFFFFFFFFFFFF800FFFFFFFF70
:10545000FFFFFFFFFFFFF800FFFFF800F800F80074
:10546000F800F800F800F800F800F800F800F8007C
:10547000F8000000F800FFFFFFFFFFFFFFFFFFFF46
:10548000FFFFFFFFF800FFFFF800FFFFFFFFFFFF38
:10549000FFFF0000F800FFFFF800F800F800F80038
:1054A000F800FFFFFFFFF800FFFFF800F800F8002A
:1054B000F800F8000000F800F800F800F800F80024
:1054C000F800F800F800F800F800F800F800F8001C
:1054D000F800F800F800F800F800F800F800F8000C
:1054E000F800F800F800F800FFFFF800F800F800F6
:1054F000F800F800F800F800F8000000FFFFF800DE
:105500000000F800F800FFFFF800FFFF0000F800BF
:10551000F800F800FFFFFFFFFFFFFFFF0000FFFFA5
:10552000FFFFFFFFFFFFFFFFFFFFF800FFFF00008F
:10553000F800F800F800F800F8000000F800F800A3
:10554000F800F800FFFFFFFFFFFFF800FFFFF80083
:10555000F8000000F800F8000000FFFFFFFFFFFF69
:10556000F800F800F800F800F8000000FFFFF8006D
:10557000FFFFFFFFFFFFFFFFFFFFFFFFF80000003F
:10558000F800F800F800F800F8000000F800F80053
:105590000000F800F800F800F800F800F800F80043
:1055A000F8000000F800F800F8000000F800F8002B
:1055B000F8000000F800F800F8000000F800F8001B
:1055C000F800F8000000F800F800F800F800F80013
:1055D000F800F800F800F800F800F800F800F8000B
:1055E000F800F800FFFFFFFFFFFFF800F800F800E9
:1055F000F800FFFFFFFFFFFFFFFFFFFFFFFFFFFFC1
:10560000FFFFFFFFF8000000FFFFF800F800F800C0
:10561000F800F800F800FFFFFFFFFFFF0000F800B0
:10562000F800F800F800F800F800FFFFFFFFFFFFA8
:10563000FFFFF800F800F800F800F800FFFFFFFF98
:10564000FFFFFFFFF800F800FFFFFFFFF800F80082
:10565000F800F800F800F800F800FFFFF800F80084
:10566000F800F8000000F800F8000000F800F8006A
:10567000F800F800F800F800F800F800F800FFFF64
:10568000F800F800F800F800F800F800F800FFFF54
:10569000F800F800F800F800F800F800F800F8004A
:1056A000F800F8000000F800F8000000F800F8002A
:1056B0000000FFFFFFFFF800FFFFF800F800F80010
:1056C000FFFFF800FFFFFFFFFFFFFFFFFFFFFFFFF0
:1056D000FFFFFFFFFFFFF800F800F800F8000000F0
:1056E000F800F800FFFFFFFFFFFFF800F800F800E8
:1056F000F800F800F800F800FFFFFFFFF800FFFFD8
:10570000F8000000F800F800F800F800F800FFFFCB
:10571000FFFFF800F800FFFFFFFFF800F800F800B7
:105720000000F800F8000000F800F800F800F800A9
:10573000F800FFFFF800F800F800F800FFFFF8009D
:10574000F800F800FFFF0000F800F800F800000083
:10575000F800F800F8000000F800F800F800F80081
:105760000000F800F800F8000000F800F800000061
:10577000F800F800F800F800F800F800F800F80069
:10578000F800FFFFFFFFFFFFFFFF0000F800F80039
:105790000000F8000000F800F800FFFFFFFFFFFF27
:1057A000F800FFFFFFFFFFFFF800F800FFFFF80021
:1057B000F8000000F800FFFFFFFFFFFFFFFFF80009
:1057C0000000FFFFFFFFFFFFFFFFFFFFFFFFFFFFE7
:1057D000FFFFF800F8000000F800F8000000F800F3
:1057E000FFFFFFFFFFFFFFFFFFFF0000F800F800D3
:1057F000F800F800FFFFF800F8000000F800F800DB
:105800000000F800F800F800F800F800F800F800D0
:10581000F800F800F800F800F800F800F800F800C8
:10582000F800F800FFFFF800F800F8000000F800AA
:10583000F800F800FFFFF800F800F800FFFFF8009C
:10584000F800F800FFFFF800F800F800F800F80092
:10585000FFFFFFFFFFFFFFFFF800F800F800F80070
:10586000F800F800F800F800F8000000FFFFF8006A
:10587000FFFFFFFFFFFFF8000000F800F800F8004E
:10588000F800F800FFFFFFFFFFFFF800FFFFFFFF3A
:10589000FFFFFFFFFFFFFFFFF800FFFFFFFFF80024
:1058A000F800F800F800F800F800F800F800FFFF32
:1058B000FFFFFFFFF800FFFFFFFFF800F800F80010
:1058C000F800F800F800F800F800F800F800F80018
:1058D000F800F800F8000000F800F8000000F800F8
:1058E000F800F800F800F800F8000000F800F800F0
:1058F000F8000000F800F800F800F800F800F800E0
:10590000F800F8000000F800F800F800F800F800CF
:10591000F8000000F800F8000000F800F8000000AF
:10592000FFFFF800FFFFFFFFF800F800F800F800A5
:10593000F800F800F800F800F800F800F800F800A7
:10594000F800F800FFFFF800F800F800F800000089
:10595000F800F800F800F800FFFFFFFFFFFFFFFF6F
:10596000FFFFFFFFFFFFFFFFFFFFFFFFFFFFF8004D
:10597000F8000000F800F800F800F800F800F8005F
:10598000F800FFFFF800F800F800F800F800F80051
:105990000000F800F8000000F800F800F800F80037
:1059A000F800F800F800FFFFF800F800F800F80031
:1059B000F800F8000000F800F800FFFFF800F80019
:1059C000F800F800F800F8000000FFFFF800F80009
:1059D000F800F800F800F800F8000000F800F800FF
:1059E000F800F800F800F800F800F800F800FFFFF1
:1059F000FFFFFFFFFFFFF8000000F800F8000000C5
:105A0000F800F8000000F800F800F800F8000000C6
:105A1000F800F8000000F800F800F800F800F800BE
:105A2000F800F8000000F800FFFFFFFFFFFFFFFF96
:105A3000F800FFFFF800FFFF0000F800F80000008A
:105A4000F800F800F800F8000000F800F800000086
:105A5000F800F8000000F800F8000000F800F80076
:105A6000FFFFF800F800F800F800FFFF0000F80062
:105A7000F8000000F800F800F800F800F800F8005E
:105A8000F800F800F800F800F800F800F80000004E
:105A9000F800F800F800F800F800F800F800F80046
:105AA0000000FFFFF800F800F800F800F800000020
:105AB000F800F800F800F800F800F800F800F80026
:105AC000FFFFFFFFFFFFF800F800F800F800F80004
:105AD000F800F800FFFFF8000000F800F800F800F8
:105AE000F800F800F800F800F8000000F800F800EE
:105AF000F800F800F800F800F8000000F800F800DE
:105B0000FFFF0000F800F800F800F800F800F800C7
:105B1000F800F800F800F800FFFFF800F800F800BF
:105B2000F800F800F800F800F800F800F800F800B5
:105B3000F800F800F800F800F800F800F800F800A5
:105B4000F800F800F800F800F8000000F800F8008D
:105B5000F800F800F800F8000000F800F800F8007D
:105B6000FFFFF8000000F800F800F8000000F8005F
:105B7000FFFFFFFFF8000000F800F800FFFFF8004B
:105B8000F800F8000000FFFFF8000000FFFFFFFF33
:105B9000FFFFFFFFF800F800F8000000F800FFFF2B
:105BA000F800F800F800F800F800F800F800F80035
:105BB000FFFFF800F800F800F800FFFFF800F80019
:105BC0000000F800F800F800F800F800F800F8000D
:105BD000F800F800F800F800F800F800F800F80005
:105BE000F8000000F800F800F800F800F800F800ED
:105BF000F800F800F800F800F800F8000000F800DD
:105C0000F8000000F800F8000000F800F800F800C4
:105C1000FFFFF800F8000000F800F800F800F800B6
:105C2000F8000000FFFFF800F800F800F800F800A6
:105C3000F800F800F800F800F800F800F800F800A4
:105C4000FFFFFFFFFFFFF800F800F800F800F80082
:105C5000F800F800F800F800F800F800F800FFFF7E
:105C6000FFFFFFFFFFFFF800F800F800F80000005A
:105C7000F800F8000000F800F800F800F800F8005C
:105C80000000F800F8000000F800F800F800F80044
:105C9000FFFFF800F8000000F800F800F80000002E
:105CA000F800F800F8000000F800F8000000F80024
:105CB000F800FFFFF800F800F8000000F800F80016
:105CC0000000FFFFF8000000F800FFFFF800F800F8
:105CD000F800F800FFFFF800F800F800F800F800FE
:105CE0000000F800F800F800F800FFFFF800F800E6
:105CF000F800F800F800F800F800F8000000F800DC
