:020000040800F2
:10000000F82C002089010008411500083D12000865
:100010003D1500088F020008E315000800000000ED
:100020000000000000000000000000007115000842
:100030009302000800000000451500087315000831
:10004000A3010008A3010008A3010008A301000800
:10005000A3010008A3010008A3010008A3010008F0
:10006000A3010008A3010008A3010008A3010008E0
:10007000A3010008A3010008A3010008A3010008D0
:10008000A3010008A3010008A3010008A3010008C0
:10009000A3010008A3010008A3010008A3010008B0
:1000A000A3010008A3010008A3010008A3010008A0
:1000B000A3010008A3010008A3010008A301000890
:1000C000A3010008A3010008A3010008A301000880
:1000D000A3010008A3010008A3010008A301000870
:1000E000A3010008A3010008A301000800F002F822
:1000F00000F03AF80AA090E8000C82448344AAF188
:100100000107DA4501D100F02FF8AFF2090EBAE885
:100110000F0013F0010F18BFFB1A43F0010318473B
:10012000C8CA0000E8CA0000103A24BF78C878C1E5
:10013000FAD8520724BF30C830C144BF04680C60ED
:10014000704700000023002400250026103A28BF35
:1001500078C1FBD8520728BF30C148BF0B60704739
:100160001FB51FBD10B510BD00F058F81146FFF7C0
:10017000F7FF01F055FA00F076F803B4FFF7F2FF4D
:1001800003BC00F07DF8000009488047094800479B
:10019000FEE7FEE7FEE7FEE7FEE7FEE7FEE7FEE737
:1001A000FEE7FEE704480549054A064B7047000094
:1001B000E1150008ED000008F8150020F82C0020DB
:1001C000F8170020F81700204FF0000200B5134682
:1001D00094469646203922BFA0E80C50A0E80C5067
:1001E000B1F12001BFF4F7AF090728BFA0E80C5018
:1001F00048BF0CC05DF804EB890028BF40F8042B11
:1002000008BF704748BF20F8022B11F0804F18BF7D
:1002100000F8012B7047704770477047754600F033
:100220002BF8AE4605006946534620F00700854688
:1002300018B020B5FFF7B6FFBDE820404FF000062C
:100240004FF000074FF000084FF0000B21F00701BE
:10025000AC46ACE8C009ACE8C009ACE8C009ACE801
:10026000C0098D46704710B50446AFF300802046A4
:10027000BDE81040FFF781BF004870479815002087
:1002800001491820ABBEFEE726000200704700BF00
:10029000FEE770472DE9F0430646062E22D2DFE83E
:1002A00006F003080D171C1200210022FF23FF2473
:1002B00018E0002100220023002413E0FF21FF2288
:1002C000002300240EE000210022AA23552409E087
:1002D000AA2155220023002404E0AA2155225523F7
:1002E000AA2400BF00BF002035E0074600EBD77905
:1002F0004FEA6909A0EB4909B9F1000F01D089461D
:1003000000E09146CC46074600EBD7794FEA6909F1
:10031000A0EB4909B9F1000F01D0994600E0A146D0
:10032000C846002513E000EB800707EBC0072F4409
:10033000DFF82C9009F807C000EB800707EBC00737
:100340002F44DFF8209009F807806F1CBDB20D2DF7
:10035000E9DB471CB8B2D428C7DBBDE8F083000056
:1003600010000020D40A00202DE9FE4F05460E465D
:1003700014469A460E9F672D0ADCD32E08DC2819F6
:10038000401E672804DC06EB0A00401ED32801DD6E
:10039000BDE8FE8FA846B3460020029069E0002029
:1003A000019026E097F800900020009019E009F0F5
:1003B000800028B1594640460C9A00F0F5F804E058
:1003C000594640460D9A00F0EFF84FEA49604FEA6F
:1003D000106908F1010000F0FF080098401CC0B24D
:1003E000009000980828E2DB7F1C0198401CC0B2F6
:1003F0000190E11704EB51720199B1EBE20FD1DBEF
:10040000E11704EB5171C910A4EBC10141B3002005
:1004100001901BE097F8009009F0800028B1594640
:1004200040460C9A00F0C0F804E0594640460D9A48
:1004300000F0BAF84FEA49604FEA106908F101008C
:1004400000F0FF080198401CC0B20190E11704EBD6
:100450005171C910A4EBC10201998A42DADC7F1CF8
:10046000A8460BF1010000F0FF0B0298401CC0B23F
:1004700002900298504592DB00BF89E72DE9FE4FBC
:1004800004460D4616461F46DDF83080672C09DC11
:10049000D32D07DCA019401E672803DCE819401E95
:1004A000D32801DDBDE8FE8FA246AB4600200190B7
:1004B0003EE0002000902FE098F800904FF6FF708B
:1004C00000EA092908F101008046007848441FFA33
:1004D00080F9B9F1000F0CD0B9F5784F06D0A9F525
:1004E0007F40FF3840B90120029005E000200290D3
:1004F00002E00220029000BF00BF59465046029A17
:1005000000F052F80AF1010000F0FF0A08F10108BA
:100510000098401CC0B200900098B042CCDBA246CC
:100520000BF1010000F0FF0B0198401CC0B20190DC
:100530000198B842BDDB00BFB4E72DE9F0430446A3
:100540000D4616461F46DDF81C90672C01DCD32DA6
:1005500001DDBDE8F08327B9A019401E672800DD42
:10056000F7E7012F04D1A819401ED32800DDF0E7DA
:100570004FF0000813E04A462946204600F014F8E0
:1005800017B1012F06D102E0601CC4B202E0681C62
:10059000C5B200BF00BF08F1010000F0FF08B04580
:1005A000E9DB00BFD5E70000F0B503460C46154671
:1005B000672B01DCD32C00DDF0BDDE1703EB567694
:1005C00004EB840707EBC40707EBE606B0B2DE17BF
:1005D00003EB5676F610A3EBC606C6F10706F1B29A
:1005E00025B1012D11D0022D2DD11DE0184A125C2C
:1005F00001268E40B243164E3254164A125C012632
:100600008E403243134E32541EE0114A125C0126D2
:100610008E40B2430E4E32540E4A165C01228A407E
:1006200096430C4A16540FE0094A125C01268E408C
:100630003243074E3254074A125C01268E40B243C1
:10064000044E325400E0B7E700BF00BFB4E700003B
:1006500010000020D40A00202DE9F84F06460C4671
:1006600017461D46DDE90B8BDDF828A0672E09DC57
:10067000D32C07DCF019401E672803DC6019401EEC
:10068000D32801DDBDE8F88F00233A4621463046E5
:10069000CDF80080FFF751FF6019401EC1B2002362
:1006A0003A463046CDF80080FFF747FFA81EC2B299
:1006B000601CC1B201233046CDF80080FFF73DFF3A
:1006C000AB1EDAB2631CD9B2F3195B1ED8B2012398
:1006D000CDF80080FFF731FFBAF1000F17D1601C91
:1006E000C4B24FF000090FE0B91ECAB2711CC8B203
:1006F00000232146CDF800B0FFF71FFF601CC4B2F5
:1007000009F1010000F0FF09A81E4845ECDC00BF1C
:10071000B8E7000010B500BF1A48006840F040007C
:100720001849086000BF40F60801174800F03CFE79
:10073000052000F04BF940F60801134800F030FEA8
:100740000A2000F043F940F608010F4800F02CFEA3
:10075000052000F03BF9002000F018F90E2000F011
:10076000D9F8052000F032F9E52000F00FF9192042
:1007700000F0D0F8E02000F009F9022000F0CAF8FB
:1007800010BD0000003001400008014010B51020ED
:1007900000F0FCF840F6C421054800F0CDF8132025
:1007A00000F0F4F840F6C421024800F0C5F810BD8E
:1007B00010000020D40A002000BF00BF084989684B
:1007C000C1F340010029F8D00549087300BF00BFFC
:1007D00000BF03498968C1F3C0110029F8D17047EF
:1007E0000030014010B500F07FF8042000F0CEF892
:1007F00000F07AF8122000F0C9F800F075F810BD8A
:100800002DE9FE4F0446884615469946A5F120007D
:10081000C5B2A246CDF80880B9F1000F34D1082640
:100820001020019000272BE0194800EB051010F86C
:1008300007B00020009019E00BF0800028B150466E
:100840000C9A0299FFF7B0FE04E050460D9A029907
:10085000FFF7AAFE4FEA4B604FEA106B0AF1010066
:1008600000F0FF0A0098401CC0B200900098B0420F
:10087000E2DBA2460298401CC0B20290781CC7B2CC
:1008800001988742D0DB00BF00BF3046BDE8FE8F35
:10089000F7C500082DE9FC4305460E4614461F46E1
:1008A000DDE9098914E020787E280DDC20782028F5
:1008B0000ADBCDE9008922783B4631462846FFF71E
:1008C0009FFF2844C5B202E0207800B901E0641C13
:1008D000E9E700BF2846BDE8FC8310B5022000F020
:1008E00055F800F001F810BD10B502E0642000F0EA
:1008F0006DF840F202200649896801EA1021020AD7
:10090000914201D1012100E000210029EED010BD6B
:100910000008014010B5044641F21001054800F0FE
:100920003FFD2046FFF748FF41F21001014800F06B
:100930003BFD10BD0008014070B504460D46002681
:1009400041F21001104800F02BFD40F204410E4826
:1009500000F02AFD012D03D12078FFF72DFF0CE0D8
:100960002E4608E02078FFF727FF6078FFF724FF86
:10097000761EA41C761E002EF4D141F2100102480E
:1009800000F012FD70BD00000008014010B50446E3
:1009900041F210010A4800F003FD40F2044108480A
:1009A00000F0FEFC2046FFF707FF40F20441044838
:1009B00000F0FAFC41F21001014800F0F5FC10BD16
:1009C0000008014072B600BFFEE7000070B50446A3
:1009D00000F010F806462546681C10B1044800785F
:1009E000054400BF00F006F8801BA842FAD370BD92
:1009F0000800002001480068704700000000002047
:100A000003480068034909780844014908607047B1
:100A1000000000200800002010B50848006840F0E1
:100A2000100006490860032000F098F80F2000F03D
:100A300007F800F02BF8002010BD00000020024055
:100A400070B504460E4800784FF47A71B1FBF0F0AF
:100A50000C490968B1FBF0F5284600F0D5FB08B158
:100A6000012070BD102C07D200222146501E00F03C
:100A700037F80548046001E00120F2E70020F0E7C4
:100A8000080000200C0000200400002008B500BF72
:100A90001148806940F001000F498861084680696B
:100AA00000F00100009000BF00BF00BF0846C06911
:100AB00040F08050C8610846C06900F08050009046
:100AC00000BF00BF00BF0549486820F0E06040F06B
:100AD0000070486000BF08BD0010024000000140E7
:100AE0002DE9F05F80460D461646002700F07CFD9C
:100AF000074639462A46334601F00700C0F1070A87
:100B0000BAF1040F02D94FF0040A01E0C0F1070A5C
:100B1000D14600F1040ABAF1070F02D24FF0000AE1
:100B200001E0A0F1030AD4464FF0010A0AFA09FADB
:100B3000AAF1010A0AEA020A0AFA0CFA4FF0010BBA
:100B40000BFA0CFBABF1010B0BEA030B4AEA0B04AB
:100B50002146404600F050FDBDE8F09F00BF00F088
:100B60000702064B19684FF6FF031940044B0B436D
:100B700043EA0221014B196000BF70470CED00E011
:100B80000000FA0570B504460D460CB9012070BD91
:100B90005A48006800F00700A8420ED25748006883
:100BA00020F007002843554908600846006800F017
:100BB0000700A84201D00120E9E7207800F00200F8
:100BC00002281DD1207800F00400042805D14C48EB
:100BD000406840F4E0604A494860207800F008002E
:100BE000082805D14648406840F4605044494860B0
:100BF0004348406820F0F000A1680843404948603D
:100C0000207800F0010078B36068012806D13C48E4
:100C1000006800F4003090B90120B8E7606802284D
:100C200006D13748006800F0007040B90120AEE7F7
:100C30003348006800F0020008B90120A7E73048F7
:100C4000406820F00300616808432D494860FFF7C1
:100C5000D1FE064609E0FFF7CDFE801B41F2883148
:100C6000884202D9032092E707E02548406800F057
:100C70000C006168B0EB810FEDD12048006800F0F6
:100C80000700A8420ED91D48006820F0070028433D
:100C90001A4908600846006800F00700A84201D021
:100CA000012074E7207800F00400042807D11448DC
:100CB000406820F4E060E16808431149486020780A
:100CC00000F00800082808D10D48406820F4605062
:100CD000216940EAC1000A49486000F019F8084952
:100CE0004968C1F30311074A515CC84006490860CE
:100CF00006480068FFF7A4FE002048E700200240F5
:100D000000100240D8C500080C000020040000209C
:100D1000F0B585B00FF26C0C9CE8E01001A8A0E8DB
:100D2000E0101CA52D68009500210022002300245E
:100D30000020194D696801F00C05F5B1042D02D0B1
:100D4000082D19D101E0154819E001ADC1F3834622
:100D5000AC5D01F4803555B10F4D6D68C5F340456C
:100D60001DF805200D4D6543B5FBF2F302E00C4D77
:100D700004FB05F3184602E000BF084800BF00BFAF
:100D800005B0F0BD02030405060708090A0B0C0DA7
:100D90000E0F1010010200000010024000127A0035
:100DA00000093D00F8B504460CB90120F8BD2078D3
:100DB00000F00100002878D0F848406800F00C00EE
:100DC00004280CD0F548406800F00C00082811D128
:100DD000F248406800F48030B0F5803F0AD1EF4817
:100DE000006800F4003000285FD0606800285CD103
:100DF0000120DBE700BF6068B0F5803F06D1E7481F
:100E0000006840F48030E549086028E0606858B91F
:100E1000E248006820F48030E04908600846006835
:100E200020F4802008601AE06068B0F5A02F0BD194
:100E3000DA48006840F48020D84908600846006815
:100E400040F4803008600AE0D448006820F4803024
:100E5000D24908600846006820F48020086000BF7E
:100E6000606888B1FFF7C6FD054606E0FFF7C2FDE2
:100E7000401B642801D9032098E7C848006800F4A3
:100E800000300028F2D010E0FFF7B4FD054606E080
:100E9000FFF7B0FD401B642801D9032086E7BF4857
:100EA000006800F400300028F2D1207800F0020041
:100EB000022857D1B948406800F00C0050B1B7483B
:100EC000406800F00C00082818D1B448406800F4CD
:100ED000803098B9B148006800F0020020B1206964
:100EE000012801D0012061E7AC48006820F0F8003B
:100EF000616940EAC100A949086033E02069E8B1AE
:100F00000120A7490860FFF775FD054606E0FFF7D9
:100F100071FD401B022801D9032047E79F48006864
:100F200000F002000028F2D09C48006820F0F80091
:100F3000616940EAC1009949086013E000209849BE
:100F40000860FFF757FD054606E0FFF753FD401B1D
:100F5000022801D9032029E79048006800F0020028
:100F60000028F2D1207800F0080008282DD1A069CF
:100F7000B8B101208B490860FFF73CFD054606E04B
:100F8000FFF738FD401B022801D903200EE78348F4
:100F9000406A00F002000028F2D0012000F0D4FAEC
:100FA00013E000207F490860FFF724FD054606E0B6
:100FB000FFF720FD401B022801D90320F6E6774801
:100FC000406A00F002000028F2D1207800F004000E
:100FD000042873D100277148C06900F0805070B9AF
:100FE00000BF6E48C06940F080506C49C861084637
:100FF000C06900F08050009000BF00BF01276A4820
:10100000006800F48070B0B96748006840F48070F0
:1010100065490860FFF7EEFC054606E0FFF7EAFCCD
:10102000401B642801D90320C0E65F48006800F433
:1010300080700028F2D000BFE068012806D1574830
:10104000006A40F001005549086227E0E06858B99D
:101050005248006A20F00100504908620846006AC0
:1010600020F00400086219E0E06805280BD14B4825
:10107000006A40F00400494908620846006A40F0EE
:10108000010008620AE04548006A20F00100434977
:1010900008620846006A20F00400086200BFE068A9
:1010A000A0B1FFF7A7FC054609E0FFF7A3FC401B32
:1010B00041F28831884202D9032077E622E037489E
:1010C000006A00F002000028EFD012E0FFF792FC67
:1010D000054608E0FFF78EFC401B41F2883188424C
:1010E00001D9032062E62D48006A00F002000028C2
:1010F000F0D1012F05D12948C06920F0805027493F
:10110000C86100BFE069C8B32448406800F00C0023
:10111000082860D0E069022848D1002020490866EC
:10112000FFF768FC054606E0FFF764FC401B022859
:1011300001D903203AE61948006800F00070002841
:10114000F2D1206AB0F5803F07D11448406820F4FE
:101150000030A168084311494860D4E908010843F8
:101160000E49496821F4741108430C494860012074
:101170000B490866FFF73EFC054607E03DE0FFF738
:1011800039FC401B022801D903200FE60348006800
:1011900000F000700028F2D02FE0000000100240A4
:1011A0000000424280044242007000400020144986
:1011B0000866FFF71FFC054606E0FFF71BFC401B17
:1011C000022801D90320F1E50E48006800F0007004
:1011D0000028F2D111E0E069012800D1E6E50948D4
:1011E000466806F48031206A814204D106F4701109
:1011F000606A814201D00120D8E50020D6E50000D8
:10120000000042420010024070B504462546681EA8
:10121000B0F1807F01D301200FE0681E4FF0E02184
:1012200048610F214FF0FF3000F0E6F900204FF049
:10123000E021886107200861002070BD00BFFEE743
:1012400008B5054989690143034A916111468969D5
:101250000140009100BF08BD0010024008B50549DB
:1012600089690143034A91611146896901400091EE
:1012700000BF08BD001002402DE9F04102460B46B8
:101280001868C0F30F2595FAA5F0B0FA80F480E055
:101290000120A040284000287AD0082C04D240F237
:1012A000011000FA04F106E0A4F108004FF0011665
:1012B000864046F08061586808280ED11869D668C3
:1012C00026EA11260F0A97FAA7F7B7FA87F700FA66
:1012D00007F73E43D66000BF00BF586802EB1166B7
:1012E00091FAA1FCBCFA8CFC4FEA8C084FF00F0C71
:1012F0000CFA08FC376827EA0C0791FAA1FCBCFA43
:101300008CFC4FEA8C0C00FA0CFC47EA0C073760A7
:1013100000BF5868012802D05868092838D1986859
:1013200002EB116691FAA1FCBCFA8CFC4FEA8C0826
:101330004FF0030C0CFA08FC376827EA0C0791FA07
:10134000A1FCBCFA8CFC4FEA8C0C00FA0CFC47EABE
:101350000C07376000BFD86802EB116691FAA1FC58
:10136000BCFA8CFC4FEA8C084FF0040C0CFA08FC19
:10137000376827EA0C0791FAA1FCBCFA8CFC4FEA0B
:101380008C0C00FA0CFC47EA0C07376000BF00BF6A
:10139000641C25FA04F000287FF47AAFBDE8F081E0
:1013A000C1F30F2242617047C1F30F2202617047FF
:1013B00030B50246012300BF1068C0F3801038BB6F
:1013C000D1E9000420438C682043CC6820430C6999
:1013D00020434C6920438C692043CC6920430C6A2C
:1013E000204314684FF6BF75AC432043106050682B
:1013F00020F004004C6940EA14405060086AB0F5DF
:10140000005F04D1486A84B2146100BF00BF0023AA
:10141000184630BD00B585B014216846FEF7D4FEED
:101420001020FFF70DFF2020FFF70AFF0420FFF731
:1014300007FF0820FFF704FF40F60C40010A1C4A92
:10144000516100BF41F21000010A116100BF19484B
:1014500000900020019069461748FFF70DFF1748DC
:1014600000900020019069461148FFF705FF40F207
:10147000022000900420019069460D48FFF7FCFE11
:1014800041F61C40009001200190022002900020B3
:10149000039069460648FFF7EFFE6FF07B4000902F
:1014A0000020019069460648FFF7E6FE05B000BD42
:1014B00000080140E000E00400100140DF419F040B
:1014C000000C014000B58FB0282105A8FEF77CFE76
:1014D00014216846FEF778FE4FF48050FFF7BEFEF9
:1014E0000420FFF7BBFE4AF2A00000900920019003
:1014F000032002900020039069460E48FFF7BCFECF
:10150000002005904FF4827006900020079008900C
:1015100009904FF400700A9018200B9000200C9056
:101520000D900A200E9005A90348FFF741FF0FB068
:1015300000BD0000000801400030014000BFFEE790
:1015400000BFFEE77047000008B508490968C908F0
:101550004FF47A72B1FBF2F14143009100BF00BF3A
:1015600000994A1E00920029F9D108BD0C00002004
:10157000704710B5FFF744FA10BD00B58FB02821B1
:1015800005A8FEF721FE14216846FEF71DFE012086
:101590000590000406904000079001200990022069
:1015A0000C90C1030D914FF460110E9105A8FFF747
:1015B000F9FB08B1FFF706FA0F2000900220019016
:1015C000002002904FF480600390002004900221DC
:1015D0006846FFF7D7FA08B1FFF7F4F90FB000BD7E
:1015E000704700BFFEE7000002480068C0F3022019
:1015F000704700000CED00E010B5002804DB0A077E
:10160000130E054A135406E00A07140E034A00F0AD
:101610000F031B1FD45410BD00E400E018ED00E0E0
:101620000EB5FFF7F9F9FFF7A8FFFFF7F3FEFFF795
:1016300049FFFFF76FF84348D42368220021009048
:101640000846FEF71BFFFFF7A1F8FFF7CBF8FFF7FF
:1016500044F940F6B830FFF7B9F90120FEF71AFE59
:10166000002211461046FEF79FFF022000230A22A7
:10167000014600901846FEF760FF022001230A226F
:10168000042100900020FEF758FF00200221CDE940
:1016900000010A231A4610210290FEF7DDFF002008
:1016A000022101220A23CDE9002102901A461021CD
:1016B0001420FEF7D1FF01200221002322A2CDE950
:1016C00000101E211846FFF7E5F8224801210222EA
:1016D0002923CDE900210290682232210020FEF763
:1016E00043FE0120022100231BA2CDE9001064214A
:1016F0001846FFF7CFF80120022100231AA2CDE9F6
:10170000001074211420FFF7C5F8012002210023E6
:1017100018A2CDE9001084212C20FFF7BBF801208E
:101720000221002314A2CDE9001094212820FFF704
:10173000B1F8FFF72BF8FFF755F8FFF7CEF800BF29
:10174000FEE7000098190008464F4E5420544553B8
:1017500054000000831700085549443A31313232B1
:10176000323231363200000044657369676E656459
:10177000000000004279000042595400081C304427
:10178000586C800000000000000000000000000015
:101790000000000800000000000000000000000041
:1017A0001C000000000000000000000000380000E5
:1017B00000000000000000010000300000000000F8
:1017C0000000000001C00060001C0000003C0000A0
:1017D0000001F000E0007C0000007C000000007CC4
:1017E00001C0003C00008078000180001F018000E3
:1017F0003C0003C07800038000078380003C0001A8
:10180000C0780003800003E700083C0001C07C00B2
:1018100003807FFFFFFFFC3C0001C03C00038060B1
:101820000000000C3C0009C03C0013806000000078
:101830000C1C002DCB3C00799E67FFFFFFCC1C00E9
:101840002DCB3C00799E6FFFFFFFCC1C003CCB3CB6
:101850000069DE6C000000CC1E003CCB3C0029DEA1
:101860006C000000CC1E0000C01C0001C06C000019
:1018700000CC1E001CC01C0039C06C000180CC1EB6
:10188000001CEF1C003DCE6C0E01E0CC0E001CEFE6
:101890001C003DCE6C7C00F0CC0FE01EEF1FC01C86
:1018A000CE6CF0003CCC0FFE1EE71FFE1CCE6CC0C1
:1018B000000ECC0FFF8EE71FFF9CCE6C000000CC0B
:1018C0000FBFEE671FBFDCCE6C021080CC0F87EE1F
:1018D000671F8FDCCE6C0638C0CC0FC7EE670F8F4A
:1018E000CCCE6C073980CC0FCFCE670F9F8EEE6CBD
:1018F00003FF80CC0FFF86670FBF0E4E6C01EF0019
:10190000CC07FE04070FFE080E6C000000CC07F8A1
:1019100000000FF000006C000000CC040000000884
:101920000000006FFFFFFFCC00000000000000007F
:1019300067FFFFFFCC000000000000000060000017
:10194000000C00000000000000007FFFFFFFFC0013
:1019500000010A50A800007FFFFFFFFC155551C28F
:101960001C2023140660000CC0155551AA54A8541D
:10197000AA07E0000F800E38E1AA54A844AA03C0C9
:101980000007800A28A4CA5CA9732A00000000008E
:101990000000000000000000FFFFFFFFFFFFFFFF4F
:1019A000FFFFFFFFFFFFFFFFFFFFFFFFFFFFFFFF47
:1019B000FFFFFFFFFFFFFFFFFFFFFFFFFFFFFFFF37
:1019C000FFFFFFFFFFFFFFFFFFFFFFFFFFFFFFFF27
:1019D000FFFFFFFFFFFFFFFFFFFFFFFFFFFFFFFF17
:1019E000FFFFFFFFFFFFFFFFFFFFFFFFFFFFFFFF07
:1019F000FFFFFFFFFFFFFFFFFFFFFFFFFFFFFFFFF7
:101A0000FFFFFFFFFFFFFFFFFFFFFFFFFFFFFFFFE6
:101A1000FFFFFFFFFFFFFFFFFFFFFFFFFFFFFFFFD6
:101A2000FFFFFFFFFFFFFFFFFFFFFFFFFFFFFFFFC6
:101A3000FFFFFFFFFFFFFFFFFFFFFFFFFFFFFFFFB6
:101A4000FFFFFFFFFFFFFFFFFFFFFFFFFFFFFFFFA6
:101A5000FFFFFFFFFFFFFFFFFFFFFFFFFFFFFFFF96
:101A6000FFFFFFFFFFFFFFFFFFFFFFFFFFFFFFFF86
:101A7000FFFFFFFFFFFFFFFFFFFFFFFFFFFFFFFF76
:101A8000FFFFFFFFFFFFFFFFFFFFFFFFFFFFFFFF66
:101A9000FFFFFFFFFFFFFFFFFFFFFFFFFFFFFFFF56
:101AA000FFFFFFFFFFFFFFFFFFFFFFFFFFFFFFFF46
:101AB000FFFFFFFFFFFFFFFFFFFFFFFFFFFFFFFF36
:101AC000FFFFFFFFFFFFFFFFFFFFFFFFFFFFFFFF26
:101AD000FFFFFFFFFFFFFFFFFFFFFFFFFFFFFFFF16
:101AE000FFFFFFFFFFFFFFFFFFFFFFFFFFFFFFFF06
:101AF000FFFFFFFFFFFFFFFFFFFFFFFFFFFFFFFFF6
:101B0000FFFFFFFFFFFFFFFFFFFFFFFFFFFFFFFFE5
:101B1000FFFFFFFFFFFFFFFFFFFFFFFFFFFFFFFFD5
:101B2000FFFFFFFFFFFFFFFFFFFFFFFFFFFFFFFFC5
:101B3000FFFFFFFFFFFFFFFFFFFFF800FFFFFFFFBB
:101B4000F800FFFFF800FFFFF800FFFFF800FFFFBD
:101B5000F800FFFFF800FFFFF800FFFFF800FFFFAD
:101B6000F800FFFFF800FFFFF800FFFFF800FFFF9D
:101B7000F800FFFFF800FFFFF800FFFFF800FFFF8D
:101B8000F800FFFFF800FFFFF800FFFFF800FFFF7D
:101B9000F800FFFFF800FFFFF800FFFFF800FFFF6D
:101BA000F800FFFFF800FFFFF800FFFFF800FFFF5D
:101BB000F800FFFFF800FFFFF800FFFFF800FFFF4D
:101BC000F800FFFFF800FFFFF800FFFFF800FFFF3D
:101BD000F800FFFFF800FFFFF800FFFFF800FFFF2D
:101BE000F800FFFFF800FFFFF800FFFFF800FFFF1D
:101BF000F800FFFFF800FFFFF800FFFFF800FFFF0D
:101C0000F800FFFFF800FFFFFFFFFFFFFFFFFFFFF0
:101C1000FFFFFFFFFFFFFFFFFFFFFFFFFFFFFFFFD4
:101C2000FFFFFFFFFFFFFFFFFFFFFFFFFFFFFFFFC4
:101C3000FFFFFFFFFFFFFFFFFFFFFFFFFFFFFFFFB4
:101C4000FFFFFFFFFFFFFFFFFFFFFFFFFFFFFFFFA4
:101C5000FFFFFFFFFFFFFFFFFFFFFFFFFFFFFFFF94
:101C6000FFFFFFFFFFFFFFFFFFFFFFFFFFFFFFFF84
:101C7000FFFFFFFFFFFFFFFFFFFFFFFFFFFFFFFF74
:101C8000FFFFFFFFFFFFFFFFFFFFFFFFFFFFFFFF64
:101C9000FFFFFFFFFFFFFFFFFFFFFFFFFFFFFFFF54
:101CA000FFFFFFFFFFFFFFFFFFFFFFFFFFFFFFFF44
:101CB000FFFFFFFFFFFFFFFFFFFFFFFFFFFFFFFF34
:101CC000FFFFFFFFFFFFFFFFFFFFFFFFFFFFFFFF24
:101CD000FFFFFFFFFFFFFFFFFFFFFFFFFFFFFFFF14
:101CE000FFFFFFFFFFFFFFFFFFFFFFFFFFFFFFFF04
:101CF000FFFFFFFFFFFFFFFFFFFFFFFFFFFFFFFFF4
:101D0000FFFFFFFFFFFFFFFFFFFFFFFFFFFFFFFFE3
:101D1000FFFFFFFFFFFFFFFFFFFFFFFFFFFFFFFFD3
:101D2000FFFFFFFFFFFFFFFFFFFFFFFFFFFFFFFFC3
:101D3000FFFFFFFFFFFFFFFFFFFFFFFFFFFFFFFFB3
:101D4000FFFFFFFFFFFFFFFFFFFFFFFFFFFFFFFFA3
:101D5000FFFFFFFFFFFFFFFFFFFFFFFFFFFFFFFF93
:101D6000FFFFFFFFFFFFFFFFFFFFFFFFFFFFFFFF83
:101D7000FFFFFFFFFFFFFFFFFFFFFFFFFFFFFFFF73
:101D8000FFFFFFFFFFFFFFFFFFFFFFFFFFFFFFFF63
:101D9000FFFFFFFFFFFFFFFFFFFFFFFFFFFFFFFF53
:101DA000FFFFFFFFFFFFFFFFFFFFF800FFFF000047
:101DB000FFFFF800FFFF0000FFFFF800FFFF00003B
:101DC000FFFFF800FFFF0000FFFFF800FFFF00002B
:101DD000FFFFF800FFFF0000FFFFF800FFFF00001B
:101DE000FFFFF800FFFF0000FFFFF800FFFF00000B
:101DF000FFFFF800FFFF0000FFFFF800FFFF0000FB
:101E0000FFFFF800FFFF0000FFFFF800FFFF0000EA
:101E1000FFFFF800FFFF0000FFFFF800FFFF0000DA
:101E2000FFFFF800FFFF0000FFFFF800FFFF0000CA
:101E3000FFFFF800FFFF0000FFFFF800FFFF0000BA
:101E4000FFFFF800FFFF0000FFFFF800FFFF0000AA
:101E5000FFFFF800FFFF0000FFFFF800FFFF00009A
:101E6000FFFFF800FFFF0000FFFFF800FFFF00008A
:101E7000FFFFF800FFFFFFFFF800F800F800F80090
:101E8000F800F800F800F800F800F800F800F80092
:101E9000F800F800F800F800F800F800F800F80082
:101EA000F800F800F800F800F800F800F800F80072
:101EB000F800F800F800F800F800F800F800F80062
:101EC000F800F800F800F800F800F800F800F80052
:101ED000F800F800F800F800F800F800F800F80042
:101EE000F800F800F800F800F800F800F800F80032
:101EF000F800F800F800F800F800F800F800F80022
:101F0000F800F800F800F800F800F800F800F80011
:101F1000F800F800F800F800F800F800F800F80001
:101F2000F800F800F800F800F800F800F800F800F1
:101F3000F800F800F800F800F800F800F800F800E1
:101F4000F8000000F800F800F800F8000000F800C1
:101F5000F8000000F800F800F8000000F800F800B1
:101F6000F8000000F800F800F8000000F800F800A1
:101F7000F8000000F800F800F8000000F800F80091
:101F8000F8000000F800F800F8000000F800F80081
:101F9000F8000000F800F800F8000000F800F80071
:101FA000F8000000F800F800F8000000F800F80061
:101FB000F8000000F800F800F8000000F800F80051
:101FC000F8000000F800F800F8000000F800F80041
:101FD000F8000000F800F800F8000000F800F80031
:101FE000F8000000F800F800F8000000F800F80021
:101FF000F8000000F800F800F8000000F800F80011
:10200000F8000000F800F800F8000000F800F80000
:10201000F800F800F800F800F800F800F800F80000
:10202000F800F800F800F800F800F800F800F800F0
:10203000F800F800F800F800F800F800F800F800E0
:10204000F800F800F800F800F800F800F800F800D0
:10205000F800F800F800F800F800F800F800F800C0
:10206000F800F800F800F800F800F800F800F800B0
:10207000F800F800F800F800F800F800F800F800A0
:10208000F800F800F800F800F800F800F800F80090
:10209000F800F800F800F800F800F800F800F80080
:1020A000F800F800F800F800F800F800F800F80070
:1020B000F800F800F800F800F800F800F800F80060
:1020C000F800F800F800F800F800F800F800F80050
:1020D000F800F800F800F800F800F800F800F80040
:1020E000F800F800F800F800F800F800F800F80030
:1020F000F800F800F8000000F800F800F800000010
:10210000F800F800F8000000F800F800F8000000FF
:10211000F800F800F8000000F800F800F8000000EF
:10212000F800F800F8000000F800F800F8000000DF
:10213000F800F800F8000000F800F800F8000000CF
:10214000F800F800F8000000F800F800F8000000BF
:10215000F800F800F8000000F800F800F8000000AF
:10216000F800F800F8000000F800F800F80000009F
:10217000F800F800F8000000F800F800F80000008F
:10218000F800F800F8000000F800F800F80000007F
:10219000F800F800F8000000F800F800F80000006F
:1021A000F800F800F8000000F800F800F80000005F
:1021B000F800F8000000F800F8000000F800F8004F
:1021C0000000F800F800FFFFF800F800F800FFFF3B
:1021D000F800F800F800FFFFF800F800F800FFFF33
:1021E000F800F800F800FFFFF800F800F800FFFF23
:1021F000F800F800F800FFFFF800F800F800FFFF13
:10220000F800F800F800FFFFF800F800F800FFFF02
:10221000F800F800F800FFFFF800F800F800FFFFF2
:10222000F800F800F800FFFFF800F800F800FFFFE2
:10223000F800F800F800FFFFF800F800F800FFFFD2
:10224000F800F800F800FFFFF800F800F800FFFFC2
:10225000F800F800F800FFFFF800F800F800FFFFB2
:10226000F800F800F800FFFFF800F800F800FFFFA2
:10227000F800F800F800FFFFF800F800F800FFFF92
:10228000F800F800F800F800F800F800FFFFF80088
:10229000F800F800F800F800F8000000F800F80076
:1022A000F8000000F800F800F8000000F800F8005E
:1022B000F8000000F800F800F8000000F800F8004E
:1022C000F8000000F800F800F8000000F800F8003E
:1022D000F8000000F800F800F8000000F800F8002E
:1022E000F8000000F800F800F8000000F800F8001E
:1022F000F8000000F800F800F8000000F800F8000E
:10230000F8000000F800F800F8000000F800F800FD
:10231000F8000000F800F800F8000000F800F800ED
:10232000F8000000F800F800F8000000F800F800DD
:10233000F8000000F800F800F8000000F800F800CD
:10234000F8000000F800F800F8000000F800F800BD
:10235000F800F800F800F800F800F800F800F800BD
:10236000F800F8000000F800F800F800F800F800A5
:10237000F800F800F800F800F800F800F800F8009D
:10238000F800F800F800F800F800F800F800F8008D
:10239000F800F800F800F800F800F800F800F8007D
:1023A000F800F800F800F800F800F800F800F8006D
:1023B000F800F800F800F800F800F800F800F8005D
:1023C000F800F800F800F800F800F800F800F8004D
:1023D000F800F800F800F800F800F800F800F8003D
:1023E000F800F800F800F800F800F800F800F8002D
:1023F000F800F800F800F800F800F800F800F8001D
:10240000F800F800F800F800F800F800F800F8000C
:10241000F800F800F800F800F800F800F800F800FC
:10242000F8000000F800F800F800F8000000F800DC
:10243000F800FFFFF800F800F800F800F8000000CE
:10244000F800F800F8000000F800F800F8000000BC
:10245000F800F800F8000000F800F800F8000000AC
:10246000F800F800F8000000F800F800F80000009C
:10247000F800F800F8000000F800F800F80000008C
:10248000F800F800F8000000F800F800F80000007C
:10249000F800F800F8000000F800F800F80000006C
:1024A000F800F800F8000000F800F800F80000005C
:1024B000F800F800F8000000F800F800F80000004C
:1024C000F800F800F8000000F800F800F80000003C
:1024D000F800F800F8000000F800F800F80000002C
:1024E000F800F800F8000000F800F800F80000001C
:1024F000F800F800FFFFF800F800F800F800F80016
:102500000000F800F800F8000000F800FFFFF800F5
:10251000F800F800FFFFF800F800F800FFFFF800EF
:10252000F800F800FFFFF800F800F800FFFFF800DF
:10253000F800F800FFFFF800F800F800FFFFF800CF
:10254000F800F800FFFFF800F800F800FFFFF800BF
:10255000F800F800FFFFF800F800F800FFFFF800AF
:10256000F800F800FFFFF800F800F800FFFFF8009F
:10257000F800F800FFFFF800F800F800FFFFF8008F
:10258000F800F800FFFFF800F800F800FFFFF8007F
:10259000F800F800FFFFF800F800F800FFFFF8006F
:1025A000F800F800FFFFF800F800F800FFFFF8005F
:1025B000F800F800FFFFF800F800F800FFFFF8004F
:1025C000F800F800F800F800F800F800F800F8004B
:1025D000F800F800F800F800F800F800F800F8003B
:1025E000F8000000F800F800F8000000F800F8001B
:1025F000F8000000F800F800F8000000F800F8000B
:10260000F8000000F800F800F8000000F800F800FA
:10261000F8000000F800F800F8000000F800F800EA
:10262000F8000000F800F800F8000000F800F800DA
:10263000F8000000F800F800F8000000F800F800CA
:10264000F8000000F800F800F8000000F800F800BA
:10265000F8000000F800F800F8000000F800F800AA
:10266000F8000000F800F800F8000000F800F8009A
:10267000F8000000F800F800F8000000F800F8008A
:10268000F8000000F800F800F8000000F800F8007A
:10269000F800F8000000F800F8000000FFFFF80064
:1026A000F800F8000000F800F800F8000000F8005A
:1026B000F800F800F800F800F800F800F800F8005A
:1026C000F800F800F800F800F800F800F800F8004A
:1026D000F800F800F800F800F800F800F800F8003A
:1026E000F800F800F800F800F800F800F800F8002A
:1026F000F800F800F800F800F800F800F800F8001A
:10270000F800F800F800F800F800F800F800F80009
:10271000F800F800F800F800F800F800F800F800F9
:10272000F800F800F800F800F800F800F800F800E9
:10273000F800F800F800F800F800F800F800F800D9
:10274000F800F800F800F800F800F800F800F800C9
:10275000F800F800F800F800F800F800F800F800B9
:10276000F800F800F800F800F800F800F800F800A9
:10277000F800F800F800FFFFF800F800F800F80093
:10278000F800F800F8000000F800F800F800000079
:10279000F800F800F8000000F800F800F800000069
:1027A000F800F800F8000000F800F800F800000059
:1027B000F800F800F8000000F800F800F800000049
:1027C000F800F800F8000000F800F800F800000039
:1027D000F800F800F8000000F800F800F800000029
:1027E000F800F800F8000000F800F800F800000019
:1027F000F800F800F8000000F800F800F800000009
:10280000F800F800F8000000F800F800F8000000F8
:10281000F800F800F8000000F800F800F8000000E8
:10282000F800F800F8000000F800F800F8000000D8
:10283000F800F800F800F800F800F800F800F800D8
:102840000000F800F800F8000000F800F800FFFFB2
:102850000000F800F800F800FFFFF800F800F800AA
:10286000FFFFF800F800F800FFFFF800F800F8009C
:10287000FFFFF800F800F800FFFFF800F800F8008C
:10288000FFFFF800F800F800FFFFF800F800F8007C
:10289000FFFFF800F800F800FFFFF800F800F8006C
:1028A000FFFFF800F800F800FFFFF800F800F8005C
:1028B000FFFFF800F800F800FFFFF800F800F8004C
:1028C000FFFFF800F800F800FFFFF800F800F8003C
:1028D000FFFFF800F800F800FFFFF800F800F8002C
:1028E000FFFFF800F800F800FFFFF800F800F8001C
:1028F000FFFFF800F800F800FFFFF800F800F8000C
:10290000FFFF0000F800F800F800F800F800F800F9
:10291000F800F800F800F800F800F800F800F800F7
:10292000F800F800F800F800F8000000F800F800DF
:10293000F8000000F800F800F8000000F800F800C7
:10294000F8000000F800F800F8000000F800F800B7
:10295000F8000000F800F800F8000000F800F800A7
:10296000F8000000F800F800F8000000F800F80097
:10297000F8000000F800F800F8000000F800F80087
:10298000F8000000F800F800F8000000F800F80077
:10299000F8000000F800F800F8000000F800F80067
:1029A000F8000000F800F800F8000000F800F80057
:1029B000F8000000F800F800F8000000F800F80047
:1029C000F8000000F800F800F8000000F800F80037
:1029D000F800F800F800F800F800F8000000F8002F
:1029E000FFFFF8000000F800F800F8000000F80011
:1029F000F800F8000000F800F800F800F800F8000F
:102A0000F800F800F800F800F800F800F800F80006
:102A1000F800F800F800F800F800F800F800F800F6
:102A2000F800F800F800F800F800F800F800F800E6
:102A3000F800F800F800F800F800F800F800F800D6
:102A4000F800F800F800F800F800F800F800F800C6
:102A5000F800F800F800F800F800F800F800F800B6
:102A6000F800F800F800F800F800F800F800F800A6
:102A7000F800F800F800F800F800F800F800F80096
:102A8000F800F800F800F800F800F800F800F80086
:102A9000F800F800F800F800F800F800F800F80076
:102AA000F800F800F800F800F800F800F800F80066
:102AB000F800F800F800F800F800FFFFF800F80050
:102AC000F800F800FFFFF800F800F800F800000038
:102AD000F800F800F8000000F800F800F800000026
:102AE000F800F800F8000000F800F800F800000016
:102AF000F800F800F8000000F800F800F800000006
:102B0000F800F800F8000000F800F800F8000000F5
:102B1000F800F800F8000000F800F800F8000000E5
:102B2000F800F800F8000000F800F800F8000000D5
:102B3000F800F800F8000000F800F800F8000000C5
:102B4000F800F800F8000000F800F800F8000000B5
:102B5000F800F800F8000000F800F800F8000000A5
:102B6000F800F800F8000000F800F800F800000095
:102B7000F800F8000000F800F800F800F800F8008D
:102B80000000F800F800F8000000F800F800F80075
:102B90000000F800F800F8000000F800F800F80065
:102BA000FFFFF800F800F800F800FFFFF800F80059
:102BB000F800F800FFFFF800F800F800F800F8004F
:102BC000F800FFFFF800F800F800F800FFFFF80039
:102BD000F800F800F800FFFFF800F800F800F8002F
:102BE000FFFFF800F800F800F800FFFFF800F80019
:102BF000F800F800FFFFF800F800F800FFFFF80009
:102C0000F800F800FFFFF800F800F800FFFFF800F8
:102C1000F800F800FFFFF800F800F800FFFFF800E8
:102C2000F800F800FFFFF800F800F800FFFFF800D8
:102C3000F800F800F800FFFFF800F800F800F800CE
:102C4000FFFFF800F800F800F800F8000000F800B6
:102C5000F800F800F800F800F800F800F800F800B4
:102C6000F800F800F800F800F800F800F800F800A4
:102C7000F8000000F800F800F8000000F800F80084
:102C8000F800FFFFF800F800F8000000FFFFF80070
:102C9000F800F8000000F800F800F800F800F8006C
:102CA000F8000000F800F800F8000000F800F80054
:102CB000F8000000F800F800F8000000F800F80044
:102CC000F8000000FFFFFFFFF8000000F800F80028
:102CD000F8000000F800F800F8000000F800F80024
:102CE000F8000000F800F800F8000000F800F80014
:102CF000F8000000F800F800F8000000F800F80004
:102D0000F8000000F800F800F8000000F800F800F3
:102D1000F800F800F800F800F800F800FFFFF800ED
:102D2000F800F800FFFFF800F800F8000000F800D5
:102D3000F800F8000000F800F800FFFF0000F800BD
:102D4000F800F800F800FFFFF800F800F8000000B5
:102D5000F800F8000000F800F800F800F8000000A3
:102D6000F800FFFFF800F800F800F8000000F80095
:102D7000F800F800F800F800F800F800F800F80093
:102D8000F800F800F800F800F800F800F800F80083
:102D9000F800F800FFFFFFFFF800F800F800F80067
:102DA000F800F800F800F800F800F800F800F80063
:102DB000F800F800F800F800F800F800F800F80053
:102DC000F800F800F800F800F800F800F800F80043
:102DD000F800F800F800F800F800F800F800F80033
:102DE000F8000000F800F800F800F800F800F8001B
:102DF0000000F800F8000000F800F800FFFFF800FD
:102E0000F800F800F800F800F800F800F800F80002
:102E1000F800F800F8000000F800F800F800F800EA
:102E2000F800F800FFFFF800F800FFFFF800F800D6
:102E3000FFFFF800F800F8000000F800F800F800C4
:102E4000F800FFFFF8000000F800F800FFFF0000A6
:102E5000F800F800F800FFFF0000F800F800F800A4
:102E6000F800F800F800F800F800F800F80000009A
:102E7000F800F800F8000000F800F800F800000082
:102E8000F800F800F8000000F800F800F800000072
:102E9000F800F800F8000000F800F800F800000062
:102EA000F800FFFFF8000000F800F800FFFF000046
:102EB000F800F800F800F800F8000000F800F8004A
:102EC000F800F800F800F800F800F800F800F80042
:102ED0000000F800FFFFF8000000F800F800F8001C
:102EE0000000F800F800F800FFFFF800F800FFFF0E
:102EF000F800F800F8000000F800F800F800F8000A
:102F0000F8000000F800F800FFFFF800F800F800F3
:102F10000000F800F800F800F800F800F800F800E9
:102F2000F8000000F800F800F800F8000000FFFFCB
:102F3000F8000000F800F8000000F800F800F800C1
:102F4000F800F800F800F800FFFFF800F800F800BB
:102F5000FFFFF800F800F800FFFFF800F800F800A5
:102F6000FFFFF800F800F800F800FFFFF800F80095
:102F7000F800F800F800F800F800F800F800F80091
:102F8000F800F800F800F800F800F800F800F80081
:102F9000F800F800F800F800F8000000F800F80069
:102FA000F800F800F800F800F800F800F800F80061
:102FB000F800F800F800F800F800F8000000F80049
:102FC000F800F800F800F800F800FFFFF800F8003B
:102FD000F800F800F800FFFFF800F800F800F8002B
:102FE000F800F800F800F800F8000000F800F80019
:102FF000F800F800F800F800F800F800F800F80011
:10300000F800F800F800F800F800F800FFFFF800FA
:10301000F8000000F800F800F8000000F800F800E0
:10302000F8000000F800F800F8000000F800F800D0
:10303000F8000000F800F800F8000000F800F800C0
:10304000F8000000F800F800F8000000F800F800B0
:10305000F800F800FFFFF800F800F800F8000000A2
:10306000F800F8000000FFFFF800F800F800F80092
:10307000F800F8000000F800F800F8000000F80080
:10308000F800FFFFF8000000F800F800F800F80072
:10309000FFFF0000F800F800F800F800F80000005A
:1030A000F800FFFFF8000000F800F8000000F8004A
:1030B000F800F8000000FFFFF800F800F800F80042
:1030C000F800F800F8000000F800F800F800F80038
:1030D000F800F800F800F800F800F8000000F80028
:1030E000F800FFFFF800F800F800F800F800F8001A
:1030F000F800F800F800F800F800F800F800F80010
:10310000F800F800F800F800F800F800F800F800FF
:10311000F800F800F800FFFFF800F800F800F800E9
:10312000F800F8000000F800F800F800F800FFFFD1
:10313000F800F800F800F800F800F800F8000000C7
:10314000FFFFF800F800F800FFFFF800F800F800B3
:10315000FFFFF8000000F800F800F800F800F800A1
:10316000F800F800F800F800FFFF0000F800F80091
:10317000FFFFF800F800F800F800F800F800FFFF83
:10318000F800F800F800F800F800F800F800000077
:10319000FFFFF800F800F800F800F8000000F80061
:1031A000F8000000FFFFF8000000F800F800F80049
:1031B000F800F800F8000000F800F800F80000003F
:1031C000F800F800F8000000F800F800F80000002F
:1031D000F800F800F800FFFF0000F800F800F80021
:1031E000F800F800F8000000F800F800F80000000F
:1031F000F800F800F800F800F8000000F800F80007
:10320000F800F800F800F8000000F800F800F800F6
:10321000F800F800F800F8000000F800FFFFF800E0
:10322000F800F800FFFFF800F800FFFFF8000000CA
:10323000F800F800F8000000F800F800F800F800C6
:10324000F8000000F800F800F800F800F800F800B6
:103250000000F800F800F8000000F800F800F8009E
:10326000F8000000F800F800F800F800FFFFF80090
:10327000F800F800F800F800F800F800F800F8008E
:103280000000F800F800F800F800F800FFFFF80070
:10329000F800F800F800FFFFF800F800F800F80068
:1032A000F8000000F800F800F800F800F800FFFF50
:1032B0000000F800F800F800F800F800F800FFFF40
:1032C000F800F800F800F800F800F800F800F8003E
:1032D0000000F800F800F800F800F800F800F80026
:1032E000F8000000F800F800F800F800F80000000E
:1032F000F800F800F800F800F8000000F800F80006
:10330000F800F800F800F800F800F800F800F800FD
:10331000F800F800F800FFFF0000F800F800F800DF
:10332000F800F800F800F800F800F800F800F800DD
:10333000F800F800F800FFFF0000F800F800F800BF
:10334000F800F800F800F800F800F800F800F800BD
:10335000F800F800F800F800F8000000F800F800A5
:10336000F8000000F800F800F8000000FFFFF80087
:10337000FFFFF800F800F800F800F8000000F8007F
:10338000F800F800F800F800F8000000F800F80075
:10339000F8000000F800F800F800F800F800F80065
:1033A000F800F8000000F800F800FFFF0000F80047
:1033B000F800F800F800F800F800F800F800F8004D
:1033C000F800F8000000F800F800F800F800F80035
:1033D000FFFF0000F800F800FFFFF800F800000011
:1033E000FFFFF800F800F800F800F8000000F8000F
:1033F000F800F8000000F800F800FFFF0000F800F7
:10340000F800F800F800F800F800F800F800F800FC
:103410000000F800F8000000F800FFFF0000F800CE
:10342000F800FFFF0000F800F800F800F800F800CE
:10343000FFFFF800F800F800F800F800F800F800C6
:10344000F800F800F8000000F800F800F800F800B4
:10345000F800F8000000F800F800F800F800F800A4
:10346000F800F800F800F800F800F800F800FFFF96
:10347000F800F800F800F800F800F800F800F8008C
:10348000F800F800F8000000F800F800F800F80074
:10349000F800FFFFF800F800F800F800F800F80066
:1034A000F800F800F800FFFF0000F800F800F8004E
:1034B000F800F8000000F800F800FFFFF800F8003E
:1034C000F800FFFFF800F800F800F800F800F80036
:1034D000F8000000F800F800F800F8000000F8001C
:1034E000F800F800F800F800F800F800F800F8001C
:1034F000F800F800F800F800F800F8000000F80004
:10350000F800F800F800FFFFF800F800F8000000ED
:10351000F800F800F800F800F800F800F800F800EB
:10352000F800F800FFFFF800F800F800F8000000CD
:10353000F800F800FFFFF800F8000000F800F800BD
:103540000000F800FFFFF8000000F800F800F800A5
:103550000000F800F800FFFFF8000000F800F80095
:103560000000F800FFFFF800FFFFF800F80000007F
:10357000F800F800F800F800F800F800F800F8008B
:10358000F800F800F800F800F800F800F800F8007B
:103590000000F800F800F8000000F800F800F8005B
:1035A000FFFFF800F8000000F800F800F800F8004D
:1035B000F800F800FFFFF800F800F800F80000003D
:1035C000F800F800F8000000F800F800FFFFF8002D
:1035D000F8000000F800F8000000FFFFF800F80015
:1035E000F800FFFFF800F800F8000000FFFFF80007
:1035F0000000F800F800F8000000F800FFFFF800F5
:10360000F8000000F800F800F800F800F800F800F2
:10361000F800F800F800F800F800F800F800F800EA
:10362000FFFFF800F800F800F800FFFFF800F800CE
:10363000F800F800F8000000F800F800FFFFF800BC
:10364000F800F8000000F800F800FFFF0000F800A4
:10365000F800FFFFF800F8000000F800F800F8009C
:10366000F800F800F800F800F800F800F800000092
:10367000F800F800F800F800F800FFFFF800F80084
:103680000000F800F8000000F800F800F800F8006A
:10369000F800F800F800FFFFF800F800F800F80064
:1036A000F800F800F800F800F800F800F800F8005A
:1036B0000000F800F8000000F800F800F800F8003A
:1036C000F800F800F800F800F800F800F800F8003A
:1036D000F800F800F800F800F800F800F800F8002A
:1036E000F800F8000000F800F800F8000000F8000A
:1036F000F800F8000000F800F800F800F800FFFFFC
:10370000F800F800F800F800F8000000F800F800F1
:10371000FFFFF800F800FFFFF800F800F800F800DD
:10372000F8000000F800FFFFF800FFFF0000F800BD
:10373000F800F8000000F800F800F800F800F800C1
:10374000F800F800F800F800F8000000F800F800B1
:10375000F800F800F800F800F8000000F800FFFF9B
:10376000F8000000F800F800F800F8000000FFFF83
:10377000F800F800FFFF0000F800F800F800F8007B
:10378000FFFFF800F800F800F800F800F800F80073
:10379000F800F8000000F800F800F8000000F80059
:1037A000F800F800F800F800F800F8000000F80051
:1037B000F800F800F800F800F800FFFFF800F80043
:1037C000F800F800F800F800F8000000F800F80031
:1037D0000000F800F800F800F800F800F800FFFF1B
:1037E0000000F800F800F8000000F800F800F80009
:1037F000FFFFF800F800F800F800F800F800F80003
:10380000F800FFFFF800F800F800FFFF0000F800E4
:10381000F800F8000000F800F800F800F800F800E0
:10382000FFFFF800F800F800F800F800F800F800D2
:10383000F800F800F800F8000000F800F800F800C0
:10384000F8000000F800F800F800FFFF0000F800A2
:10385000F800F800F800FFFFF800F8000000F8009A
:10386000F800FFFFF800F800F800F800F800F80092
:10387000F8000000F800F800F800F800F800F80080
:10388000FFFFF800F800F8000000F800F800F8006A
:103890000000F800F800F800F800F800F800FFFF5A
:1038A000F800FFFFF8000000F800F800F800F8004A
:1038B000F800F800FFFFF800F800F800F80000003A
:1038C000F800F800F800FFFFF800F800F800F80032
:1038D000F800F800F8000000F800F800F800F80020
:1038E000F800F800FFFFF800F800F800F80000000A
:1038F000F800F8000000F800F800F800F8000000F8
:10390000F800F800F800F800F800F800FFFFF800F1
:10391000F800F800F800F800F800F800F800F800E7
:10392000F800F800F8000000F800F800F800F800CF
:103930000000F800F800FFFF0000F800F800F800B1
:10394000FFFFF800F800F800F800F800F8000000A9
:10395000F800F8000000F800F800F800F800F8009F
:10396000F800F800FFFF0000F800F800FFFFF80083
:10397000F800F800F800F800FFFFF8000000F80079
:10398000F800F8000000F800F800F800F800F8006F
:10399000FFFFF8000000F800F8000000F800F80051
:1039A0000000F800F800F800F800F800F800F8004F
:1039B0000000F800F800F8000000F800F800F80037
:1039C000F800F800F800FFFFF8000000F800F80029
:1039D000F800F8000000FFFFF800F800F800000011
:1039E000F800FFFFF800F800FFFFF800F800F8000B
:1039F0000000FFFFF800F800F800F800F800F800F9
:103A0000F800F800F800F800F800F800F8000000EE
:103A1000F800F800F800F800FFFFF800F800F800E0
:103A2000F800F800F800F800F800F8000000F800CE
:103A3000F800F800F800F800F800F8000000F800BE
:103A4000F8000000FFFFF800F800F800F800F800A8
:103A5000F800F800F800F8000000FFFFF800F80098
:103A6000F800F800FFFFF800F800F800F800F80090
:103A7000F800F800F800F800F8000000F800F8007E
:103A8000F800F800F800F800F800FFFFF800F80070
:103A9000F800F800F800F800F800F800FFFFF80060
:103AA000F800F800F800F800F800FFFFF800F80050
:103AB000F800F8000000F800F8000000F800FFFF30
:103AC000F800F800F800F800F8000000FFFFF80028
:103AD000F800F8000000F800F800F800F800F8001E
:103AE000F8000000F800F800F800F800F800F8000E
:103AF000F800F800FFFFF800F800F800FFFFF800FA
:103B0000F8000000F800F800F800F800F800F800ED
:103B1000F800F800F800F8000000F800F800F800DD
:103B20000000F800F800F800F800F800F8000000C5
:103B3000FFFFF800F800F800F800F800F800FFFFB9
:103B4000F800F8000000FFFFF800F800F800FFFFA1
:103B5000F800F8000000F800F800F8000000F80095
:103B6000F8000000F800F800F800F800F800F8008D
:103B70000000F800F800F8000000F800F800F80075
:103B8000F800F800F800F800F800F800F800F80075
:103B9000F800F8000000F800F800F800F800F8005D
:103BA000F800F800F800F800F8000000FFFFF80047
:103BB000F800F800F800F800F800F8000000F8003D
:103BC000F8000000F800F8000000F800F800F80025
:103BD000F800F800F800F8000000F800F800F8001D
:103BE000F800F800F800F800FFFFF800F800F8000F
:103BF000FFFFF800F800F800FFFFF800F800F800F9
:103C0000F8000000F800F8000000F800F8000000DC
:103C1000F800F800F800F800F800F800F8000000DC
:103C2000F800F800F800F800F800F800F800F800D4
:103C3000FFFFF800F800F800F8000000F800F800B6
:103C4000F800F800F800F800F800F800F800FFFFAE
:103C50000000F800F800F800F800FFFFF80000008E
:103C6000FFFFF800F800F800F800F800F800F8008E
:103C70000000F800F800F800F800F800F800F8007C
:103C8000F800F800F800F800F800F800F800FFFF6E
:103C9000F800F800F800F800F800F800F80000005C
:103CA000F800F800F800FFFFF800F800F800000046
:103CB000F800F800FFFFFFFFFFFFFFFF0000F80024
:103CC000F800F8000000F800F800F800F800F8002C
:103CD000F800F800F800F800F800F800F800F80024
:103CE000F800F800F800F8000000F800F800F8000C
:103CF000F800F800F800F8000000F800F800F800FC
:103D0000F800F8000000F800F800F800F800F800EB
:103D1000F800FFFF0000F800F800F8000000F800CD
:103D2000F800F800FFFF0000F800F800F800F800C5
:103D3000F800F800F800F800FFFF0000F800F800B5
:103D4000F800FFFFF8000000F800F800F80000009D
:103D5000F800F800FFFFF800F800F800F800F8009D
:103D6000F800F800F800F800F800F800F800F80093
:103D7000F800F8000000F800F800F800F800F8007B
:103D8000F800F8000000FFFFFFFFF800F800F8005F
:103D9000FFFFF800F800F800FFFFF800F80000004F
:103DA000F800F800F800F800FFFFF800F800F8004D
:103DB000F8000000F800FFFFF800F800F800F80035
:103DC000F8000000F800FFFFF800F800F80000001D
:103DD000F800F800F800F800F800F800F80000001B
:103DE000F800F800F800F800F800F800F800F80013
:103DF000F800F800F800F800F800F8000000F800FB
:103E0000F800F800F8000000F800F800F800F800EA
:103E1000F800F800F800F800F800F800F800F800E2
:103E2000F800F8000000F800F800F8000000F800C2
:103E3000F8000000F800F8000000FFFFF800F800AC
:103E4000F800F800F800F800F8000000FFFFF800A4
:103E5000F800F800F800F800F800F800F800F800A2
:103E60000000F800F800F8000000F800F800F80082
:103E7000F800F8000000F800F8000000F800F80072
:103E8000F800FFFFFFFFFFFFF800F8000000F80058
:103E9000FFFFF800F800F800F800F800F800F8005C
:103EA000F800F800FFFFFFFF0000F800F800F8003E
:103EB000F800F800F800F8000000FFFFF800F80034
:103EC000F8000000F800F800F800F800F800F8002A
:103ED000F8000000F800F800F800F800F800000012
:103EE000F800F800F800F800FFFF0000F800F80004
:103EF000F800F800F800F800F800F800F800F80002
:103F0000F800F800F800F800F800F800F8000000E9
:103F1000FFFFF800F800F800F800F800F800F800DB
:103F20000000F800F800F800F8000000F800F800C1
:103F3000F800F800F800F800F800F800F800F800C1
:103F4000F800FFFFF800F800F800F800F8000000A3
:103F5000F800F800F800F800F800F800F800F800A1
:103F6000F800F800F800F800F8000000FFFFF80083
:103F7000F8000000F800FFFFFFFFF800F800F8006D
:103F8000F800F8000000F800F800F800F800F80069
:103F9000F800F800F800FFFF0000F800F800F80053
:103FA000FFFFF800F800F800F800F800FFFFF80045
:103FB000F800F8000000F800F800F800F800FFFF33
:103FC0000000F800F800F800F800F800F800F80029
:103FD000FFFFF800F800F800F800F800F800F8001B
:103FE000F8000000F800F800F800F800F800F80009
:103FF000F800F800F8000000F800F800F800F800F9
:10400000F800F8000000F800F800F8000000F800E0
:10401000F800F800F800F800F800F800F800F800E0
:10402000F800F8000000F800F800F800F800F800C8
:104030000000F800F8000000F800F800F800F800B0
:10404000F800F800FFFFFFFFFFFFF800FFFFFFFF92
:10405000FFFFFFFFFFFFFFFFF800F8000000F80080
:10406000F800F800F800F800F800F800F800000088
:10407000F800F800F800F8000000F800F800F80078
:10408000F800F800F800F800F800F800F800F80070
:10409000F800F800F800F800F800F800F800000058
:1040A000F800F8000000F800F8000000F800F80040
:1040B000F800F800FFFF0000F800F8000000F8002A
:1040C000F800F800F800F800F800F800F800000028
:1040D000F800F800FFFFF800F800F800FFFFF80014
:1040E000F800F8000000F800F8000000FFFFF800FA
:1040F000F800F800F800F800F8000000F800F800F8
:10410000F800F800F800F800F800F800F8000000E7
:10411000FFFFF800FFFFFFFFFFFFFFFFFFFFFFFFB5
:10412000FFFFFFFFFFFFFFFFFFFFF800F800F800B1
:10413000F800F8000000F800F800F800F800F800B7
:10414000F8000000F800F800F800F800F800F800A7
:104150000000FFFFF800F800F800F8000000F80089
:10416000F800F800F800F800F800F800F800F8008F
:10417000F800F800F800FFFFF800F800F800F80079
:10418000F800F800F800F800F800F800FFFFF80069
:10419000F8000000FFFFF800F800F800FFFFF8004B
:1041A000F800F800F800F8000000F800F800F80047
:1041B0000000F800F800F800F800F800F800F80037
:1041C0000000F800F800F800F800FFFFF800F80021
:1041D000F800F800F800FFFFFFFFFFFFFFFFFFFF01
:1041E000FFFFFFFFFFFFF800FFFFFFFFF800FFFFEB
:1041F000FFFFF800FFFFFFFFFFFFF800F8000000DF
:10420000FFFFF800F800F800F8000000FFFFF800DA
:10421000F800F800F800FFFFF800F8000000F800D0
:10422000F800F800F8000000F800F800F800F800C6
:10423000F8000000F800FFFFF800FFFF0000F800A2
:10424000F800F800F8000000F800F800F800F800A6
:10425000F8000000F800F800F800F800F800F80096
:10426000F800F800F800F800F8000000F800F80086
:10427000F8000000F800F800F800F800F800F80076
:10428000F800F800F800FFFFFFFFF800F800F80062
:10429000F800FFFFF800F8000000F800F800F80050
:1042A000F8000000FFFFFFFFFFFFFFFFFFFFFFFF22
:1042B000FFFFFFFFFFFFFFFFFFFFFFFFFFFFFFFF0E
:1042C000FFFFFFFFFFFFF8000000F800F800F80014
:1042D000F800F800F800F800F800F800F800F8001E
:1042E000F800F800F8000000F800F800F800F80006
:1042F000F800F800F800F800F800F800FFFFF800F8
:10430000F800F800F800F800F800F800F800F800ED
:10431000F8000000F800F800F800F8000000FFFFC7
:10432000F800F800F800F8000000F800F8000000BD
:10433000F800F800F8000000F800F800F800F800B5
:10434000F800F800F800F800F800F8000000F800A5
:10435000F800F800FFFFFFFFFFFFF8000000F80083
:10436000F800F8000000F800F800F800F80000007D
:10437000F800FFFFFFFFFFFFF800FFFFFFFFFFFF59
:10438000FFFFF800FFFFFFFFF800FFFFF800FFFF4F
:104390000000F800F800F800F800F800F800F80055
:1043A000F8000000F800F800F800F800F80000003D
:1043B000F800F800F800F800F800F800F800F8003D
:1043C0000000F800F800F800F8000000F800F8001D
:1043D000F800F800F800F800F800F800F800F8001D
:1043E000FFFFF800F800F800F800F800F800F80007
:1043F000F800F800F800F800F800F800F800F800FD
:10440000F800F800F800F800F800F800F8000000E4
:10441000F800F800F8000000F800FFFFF800F800CE
:10442000F8000000F800FFFFFFFFF800F800F800B8
:10443000F800F800F800F800F800F800F800F800BC
:10444000F800F800F800FFFFFFFFFFFFF800F8009A
:10445000FFFF0000F800FFFFFFFFFFFFFFFFF80076
:10446000FFFFFFFF0000F800F800F8000000F80070
:10447000F800F800F800FFFF0000F800F800F8006E
:10448000FFFF0000F800F800F8000000FFFFF80050
:10449000F800F8000000FFFFF800F800F800F8004E
:1044A000F8000000F800F800F800F8000000F8003C
:1044B000F800F800F800F8000000FFFFF800F8002E
:1044C0000000F800F800FFFFF800F800F800FFFF18
:1044D000F8000000F800FFFFF800F800F800FFFF08
:1044E000F800F800F800F800F800F800F800F8000C
:1044F000F800FFFFFFFFFFFFFFFFF800FFFFFFFFD8
:10450000FFFFFFFFFFFFF800F8000000F800FFFFCB
:10451000F800F800F8000000F800F8000000F800CB
:10452000F800F800FFFFFFFFFFFFFFFFFFFFFFFFA7
:10453000FFFFFFFFFFFFF800F800F800F800F800A9
:10454000F800F800F800F800F800F800F800F800AB
:10455000F800F800F800F800F800FFFFFFFFF8008F
:10456000F800F800F800F800F800F8000000F80083
:10457000F800FFFFF800F800F800F800F800F80075
:10458000F8000000F800F800F800F800F800F80063
:10459000F800F800F8000000F800F8000000F8004B
:1045A000F800F800F800F800F8000000F800F80043
:1045B000F800F800F800F8000000F800F80000002B
:1045C000F800F800FFFFF800FFFFFFFFFFFFFFFF0D
:1045D000FFFFFFFFFFFFFFFFF800F800F800F80003
:1045E0000000F800F800F800F800F800F800FFFFFD
:1045F000FFFFFFFFFFFFF800FFFFFFFFF800FFFFD7
:10460000FFFFFFFFFFFFF8000000F800F800F800D0
:10461000FFFFF8000000F800F800F8000000F800C4
:10462000F800F800F8000000F800F800FFFFFFFFB6
:104630000000F800F800F800F800F800F800F800B2
:10464000F800F800F800F800F800F800F800F800AA
:10465000F800F800F800F800F800F8000000F80092
:10466000F800F800F800F800F800F800F800F8008A
:10467000F800F800F8000000F800F800F800F80072
:104680000000F800F800F800FFFFF800FFFFFFFF50
:10469000FFFFFFFFFFFFFFFFFFFFFFFFF800FFFF30
:1046A000F800FFFFFFFFF800F800F800F800F8003E
:1046B000F800F800F800F800F800F800FFFFFFFF2E
:1046C000FFFFFFFFFFFFFFFFFFFFFFFFFFFFFFFFFA
:1046D000F800F800F800F800F800F800F800000012
:1046E000F800F800F800F800F800F800F800F8000A
:1046F000F800F800F800F800F800F800F800F800FA
:10470000F800F800F8000000F800F800FFFFF800DB
:104710000000F800F800F800F800F800F8000000C9
:10472000F800F800FFFF0000F800F800F800F800BB
:10473000FFFFF8000000F800F800F800F800F800AB
:104740000000F800F800F800F800F800F800F800A1
:10475000FFFFF800FFFFFFFFFFFFFFFFFFFFFFFF6F
:10476000FFFFFFFFFFFFFFFFFFFFFFFFFFFFFFFF59
:10477000FFFFFFFFFFFF0000F800F8000000F80057
:10478000F800F800F800F8000000F800FFFFFFFF55
:10479000FFFFFFFFF800FFFFF800F8000000F8003F
:1047A000FFFFF8000000F800F800FFFFF800F80035
:1047B000F800F800F800F8000000F800FFFFF8002B
:1047C000F8000000FFFFF800F800F8000000F80013
:1047D000F800F800F800F800F8000000F800F80011
:1047E000F8000000F800F800F800F800FFFFF800FB
:1047F000F800F800F800F800F800F800F800F800F9
:104800000000F800F800F800FFFF0000F800F800D2
:10481000F800FFFFF800F800F8000000F800FFFFC4
:10482000FFFFFFFFFFFFFFFFF800FFFFFFFFF800A4
:10483000FFFFF800FFFFF800FFFFFFFFFFFFFFFF94
:104840000000F800F800F800F800F800F800FFFF9A
:10485000F8000000F800F800F800F800FFFFF8008A
:10486000F800F800FFFF0000FFFFFFFFFFFFFFFF62
:10487000FFFFFFFFFFFFF800F8000000F800F8005E
:10488000F8000000F800FFFFF800F800F800000052
:10489000F800F800F800F8000000F800F800F80050
:1048A000F800FFFFF800F800F800F800F800F80042
:1048B000F800F800F800F800F8000000F800F80030
:1048C000F8000000F800F800F8000000F800F80018
:1048D000F800F800F800F800F800F800F800F80018
:1048E000F800F8000000F800F800F800F800FFFFFA
:1048F000FFFFFFFFF800FFFFFFFFFFFFFFFFFFFFCE
:10490000FFFFFFFFFFFFFFFFFFFF0000F800F800C1
:10491000F800F800F800F800F800F800F800F800D7
:10492000F800F800FFFFF800F800F800F8000000B9
:10493000FFFFFFFFFFFFFFFFFFFFFFFFFFFFFFFF87
:10494000F800FFFFFFFFFFFFF800F800F800F80095
:10495000F800F800F800F800F800F800F800F80097
:10496000F800F800F800F800F800F800F800F80087
:104970000000F800F8000000F800F800F800F80067
:10498000F800F800F800F800F800F800F800F80067
:10499000F800F800F800F800F800FFFFF800F80051
:1049A000F800F8000000F800F800F800F800000037
:1049B000F800F800F800F800F800F800FFFFFFFF2B
:1049C000F800FFFFFFFFFFFFFFFFFFFFF800FFFF03
:1049D000FFFFFFFFFFFFFFFFF800FFFFF800F800F9
:1049E000F8000000F800F8000000F800F8000000EF
:1049F000F800F800F8000000F800F800F800FFFFE9
:104A0000FFFFFFFFF800FFFFFFFFF800FFFFFFFFC2
:104A1000FFFFFFFFF800FFFFF800F800F8000000BC
:104A2000F800F800F8000000FFFFFFFFFFFFF800AC
:104A3000F8000000F800F800F800FFFFF800F800A8
:104A4000F800F800F800F800FFFFF8000000F80098
:104A5000FFFF0000F800F800F800F800F800000080
:104A6000FFFFF800F8000000F800F800F800000070
:104A7000F800F800F800F8000000F800FFFFF80068
:104A8000F800F800F800F800F800F8000000FFFF58
:104A9000FFFFFFFFFFFFFFFFFFFF0000FFFFFFFF24
:104AA000FFFFF800FFFFFFFFFFFFFFFFFFFFF80022
:104AB000FFFFF800F800F800F800F800F800F80030
:104AC000F800F800F800F800F8000000F800FFFF18
:104AD000FFFFFFFFFFFFFFFFFFFFFFFFF800FFFFEC
:104AE000F800FFFFFFFFFFFFFFFF0000F800FFFFE0
:104AF000F800F800F800F800F800FFFFFFFFF800EA
:104B0000FFFFF800F800F800F800F8000000F800D7
:104B1000F800F800F800F800F800F800F800F800D5
:104B2000F800F800F800F800F800F800F800F800C5
:104B3000F800F800F800F800F800F800F800F800B5
:104B4000FFFFF800F800F800F800F800F800F8009F
:104B5000F8000000FFFFF8000000F800F800FFFF79
:104B6000F800FFFF0000F800F800F800FFFFFFFF6B
:104B7000FFFFFFFF0000FFFFFFFFFFFFFFFFFFFF43
:104B8000FFFFF800FFFF0000F800F800F800F80051
:104B9000F8000000F800F800F800F800FFFFFFFF41
:104BA000FFFFF800FFFFF800F8000000F800F80031
:104BB0000000FFFFFFFFFFFFF800F800F800F8001B
:104BC000F8000000FFFFF800FFFFFFFFFFFFFFFFFF
:104BD000FFFFFFFFF8000000F800F800F800F80001
:104BE000F8000000F800F8000000F800F800F800F5
:104BF000F800F800F800F800F8000000F800F800ED
:104C0000F8000000F800F800F8000000F800F800D4
:104C1000F8000000F800F800F800F8000000F800C4
:104C2000F800F800F800F800F800F800F800F800C4
:104C3000F800F800F800F800F800F800FFFFFFFFA8
:104C4000FFFFF800F800F800F800FFFFFFFFFFFF8C
:104C5000FFFFFFFFFFFFFFFFFFFFFFFFF800000068
:104C6000FFFFF800F800F800F800F800F800FFFF78
:104C7000FFFFFFFF0000F800F800F800F800F80060
:104C8000F800FFFFFFFFFFFFFFFFF800F800F8004C
:104C9000F800F800FFFFFFFFFFFFFFFFF800F8003C
:104CA000FFFFFFFFF800F800F800F800F800F80038
:104CB000F800FFFFF800F800F800F8000000F80026
:104CC000F8000000F800F800F800F800F800F8001C
:104CD000F800F800F800FFFFF800F800F800F8000E
:104CE000F800F800F800FFFFF800F800F800F800FE
:104CF000F800F800F800F800F800F8000000F800EC
:104D0000F8000000F800F8000000FFFFFFFFF800C7
:104D1000FFFFF800F800F800FFFFF800FFFFFFFFBB
:104D2000FFFFFFFFFFFFFFFFFFFFFFFFFFFFF80099
:104D3000F800F800F8000000F800F800FFFFFFFF9F
:104D4000FFFFF800F800F800F800F800F800F8009D
:104D5000FFFFFFFFF800FFFFF8000000F800F80079
:104D6000F800F800F800FFFFFFFFF800F800FFFF71
:104D7000FFFFF800F800F8000000F800F80000005D
:104D8000F800F800F800F800F800FFFFF800F8005D
:104D9000F800F800FFFFF800F800F800FFFF00003F
:104DA000F800F800F8000000F800F800F800000033
:104DB000F800F800F800F8000000F800F800F8002B
:104DC0000000F800F8000000F800F800F800F80013
:104DD000F800F800F800F800F800FFFFFFFFFFFF01
:104DE000FFFF0000F800F8000000F8000000F800E5
:104DF000F800FFFFFFFFFFFFF800FFFFFFFFFFFFCF
:104E0000F800F800FFFFF800F8000000F800FFFFCE
:104E1000FFFFFFFFFFFFF8000000FFFFFFFFFFFFA6
:104E2000FFFFFFFFFFFFFFFFFFFFF800F80000009C
:104E3000F800F8000000F800FFFFFFFFFFFFFFFF92
:104E4000FFFF0000F800F800F800F800FFFFF8008E
:104E5000F8000000F800F8000000F800F800F80082
:104E6000F800F800F800F800F800F800F800F80082
:104E7000F800F800F800F800F800F800FFFFF8006C
:104E8000F800F8000000F800F800F800FFFFF80054
:104E9000F800F800FFFFF800F800F800FFFFF80046
:104EA000F800F800F800F800FFFFFFFFFFFFFFFF2A
:104EB000F800F800F800F800F800F800F800F80032
:104EC000F8000000FFFFF800FFFFFFFFFFFFF80002
:104ED0000000F800F800F800F800F800FFFFFFFFFE
:104EE000FFFFF800FFFFFFFFFFFFFFFFFFFFFFFFD8
:104EF000F800FFFFFFFFF800F800F800F800F800E6
:104F0000F800F800F800FFFFFFFFFFFFF800FFFFC9
:104F1000FFFFF800F800F800F800F800F800F800CB
:104F2000F800F800F800F800F800F800F8000000B9
:104F3000F800F8000000F800F800F800F800F800A9
:104F4000F8000000F800F800F8000000F800F80091
:104F5000F800F800F800F800F800F8000000F80089
:104F6000F800F800F800F800F8000000F800F80079
:104F70000000F800F8000000FFFFF800FFFFFFFF4F
:104F8000F800F800F800F800F800F800F800F80061
:104F9000F800F800F800F800F800F800FFFFF8004B
:104FA000F800F800F8000000F800F800F800F80039
:104FB000FFFFFFFFFFFFFFFFFFFFFFFFFFFFFFFF01
:104FC000FFFFFFFFFFFFF800F8000000F800F80007
:104FD000F800F800F800F800F800FFFFF800F8000B
:104FE000F800F800F800F8000000F800F8000000F1
:104FF000F800F800F800F800F800F800F800FFFFEB
:10500000F800F800F800F800F800F8000000F800D8
:10501000F800FFFFF800F800F800F800F800F800CA
:105020000000FFFFF800F800F800F800F800F800B2
:10503000F8000000F800F800F800F800F800F800A8
:10504000F800F800F800FFFFFFFFFFFFFFFFF80088
:105050000000F800F8000000F800F8000000F80078
:10506000F800F800F8000000F800F8000000F80070
:10507000F800F800F800F800F800F8000000F80068
:10508000FFFFFFFFFFFFFFFFF800FFFFF800FFFF3C
:105090000000F800F8000000F800F800F800F80040
:1050A0000000F800F8000000F800F8000000F80028
:1050B000F8000000F800F800FFFFF800F800F80022
:1050C000F800FFFF0000F800F8000000F800F8000A
:1050D000F800F800F800F800F800F800F800F80010
:1050E000F800F800F8000000F800F800F800F800F8
:1050F000F800F800F800F8000000FFFFF800F800E2
:10510000F800F800F8000000F800F800F800F800D7
:10511000F800F800F800F800FFFFFFFFFFFFF800BD
:10512000F800F800F800F800F800F800FFFFF800B9
:105130000000F800F800F800F800F800F800F800A7
:10514000F8000000F800F800F800F800F800F80097
:10515000F8000000F800F800FFFF0000F800F80079
:10516000F800F800F800F800F800F800F800F8007F
:10517000FFFFF800F800F800F800F800F800F80069
:10518000F800F800F800F800F800F800F800F8005F
:10519000F800F800F800F800F800F800F800F8004F
:1051A000F8000000F800F800F800F800F800F80037
:1051B0000000F800F800F800FFFFF8000000F80019
:1051C000F800F8000000F800FFFFFFFFF800000003
:1051D000F800F800FFFFF800F800F8000000FFFFFB
:1051E000F8000000FFFFFFFFFFFFFFFFF800F800DF
:1051F000F8000000F800FFFFF800F800F800F800E1
:10520000F800F800F800F800FFFFF800F800F800D8
:10521000F800FFFFF800F8000000F800F800F800C0
:10522000F800F800F800F800F800F800F800F800BE
:10523000F800F800F800F800F8000000F800F800A6
:10524000F800F800F800F800F800F800F800F8009E
:10525000F800F8000000F800F8000000F800F8007E
:105260000000F800F800F800FFFFF800F800000068
:10527000F800F800F800F800F8000000FFFFF80060
:10528000F800F800F800F800F800F800F800F8005E
:10529000F800F800F800F800FFFFFFFFFFFFF8003C
:1052A000F800F800F800F800F800F800F800F8003E
:1052B000F800F800F800FFFFFFFFFFFFFFFFF80016
:1052C000F800F800F8000000F800F8000000F8000E
:1052D000F800F800F800F8000000F800F8000000FE
:1052E000F800F800F800F800FFFFF800F8000000F0
:1052F000F800F800F8000000F800F800F8000000DE
:10530000F800F8000000F800F800FFFFF800F800CF
:10531000F8000000F800F8000000FFFFF8000000AF
:10532000F800FFFFF800F800F800F800FFFFF800B1
:10533000F800F800F800F8000000F800F800F800A5
:10534000F800FFFFF800F800F800F800F800F80097
:10535000F800F8000000F800F800F800F800F80085
:105360000000F800F800F800F800F800F800F80075
:10537000F8000000F800F8000000F800F800F8005D
:10538000F800F800F800FFFFFFFFF8000000F80049
:10539000F800F800F800F800F800F800F800F8004D
:1053A000F800FFFF0000F800F800F800F800F8002F
:1053B000F800F8000000F800F800F800F800F80025
:1053C000F800F800F800F800F800F800F800F8001D
:1053D000F800F800F800F800F800F800F800000005
:1053E000F800F800F800F800F800F800F800F800FD
:1053F000F800F800F800F800F800F800F800F800ED
:10540000F800F8000000F800F800F800F800F800D4
:10541000F800F8000000F800F800F800F8000000BC
:10542000F800FFFFF800F800F8000000F800F800AE
:10543000FFFFF8000000F800F800F8000000F80096
:10544000F800F800F800F800FFFFF800F800F80096
:105450000000F800F8000000F800F800F800F8007C
:105460000000F800F800F800F800F800F80000006C
:10547000F800F800F800F800F8000000F800F80064
:10548000F800F800F800F800F8000000F800FFFF4E
:10549000F8000000F800F800F8000000F800F8003C
:1054A000F800FFFFF800F8000000F800F800F8002E
:1054B000F800FFFFFFFFF800F800F800F800F80020
:1054C000F8000000F800F8000000F800F800000004
:1054D000F800FFFFF800F800F800F800F8000000FE
:1054E000F800F800F800F800F800F800F800F800FC
:1054F000F800F800F800F800F800F800F800F800EC
:10550000F800F800F800F800F800F800F800F800DB
:10551000F800F800F800F800F800F8000000F800C3
:10552000F800F800F800F800F800F800F800F800BB
:10553000F800FFFFF8000000F800FFFFF800F80097
:10554000F800F800F800F800F800FFFFF800F80095
:105550000000F800F800F800F800F800F800F80083
:10556000F800F800F800FFFFF800F800F800F80075
:105570000000F800F800F800F800F800F800F80063
:10558000F800FFFFFFFF0000F800F8000000F8003F
:10559000F800F800F800F800F800F800F800F8004B
:1055A000F800F800F800F8000000FFFFF800F8002D
:1055B000F800F800F800F800F8000000F800F80023
:1055C000F800F800F8000000F800FFFFF800000005
:1055D000F800F800F800F8000000F800F800FFFFFD
:1055E0000000F800F8000000F800F800F800F800EB
:1055F000FFFFF800F800F800F800F8000000F800DD
:10560000F800F800F800F800F8000000F800F800D2
:10561000F800F8000000F800FFFFFFFFFFFFF800B0
:10562000F800F800FFFF0000F800F800F8000000A4
:10563000F800F800F800F8000000F800F800F800A2
:10564000F800F800FFFF0000F800F800F800000084
:10565000F800FFFFFFFFFFFFF800F800F800F80078
:10566000FFFFF800F800F800FFFFF800F800F8006E
:10567000F8000000F800F800F800F800F800F80062
:10568000F8000000F800F800F800F800F800F80052
:105690000000F800F800F800F800F800F800F80042
:1056A000F800F800F800FFFFF800F800F800F80034
:1056B000F800F800F800F800F800F800F800F8002A
:1056C0000000F800F8000000F800FFFFF800F80004
:1056D000F8000000F800F800F800F800F800F80002
:1056E0000000F800F800F800FFFFFFFFF800F800E6
:1056F000F800F800F800F800F800F800F800F800EA
:10570000F800F8000000F800F800FFFFFFFFFFFFBF
:10571000FFFFFFFFFFFFFFFFF800F800F800F800B1
:10572000F800FFFFFFFFFFFFF800F800F800F800A7
:105730000000F800F8000000F800F8000000F80091
:10574000F800F800F800F800F800F8000000F80091
:10575000FFFFF800F800F800F800FFFFF800F8007D
:10576000F800FFFFF800F800F8000000F800F8006B
:10577000F800F8000000F800F800F8000000F80059
:10578000F800F800F800FFFFF8000000F800F8004B
:10579000F800F800F800F800F800F800F800F80049
:1057A000F800F800F800F800F800F800F800F80039
:1057B000FFFFF800F800F800F800FFFF0000F80015
:1057C000F8000000F800F800F8000000F800F80009
:1057D000F800F800F800FFFFFFFFFFFFFFFFFFFFEB
:1057E000FFFFFFFFFFFFFFFFFFFF0000F800F800D3
:1057F000F800FFFFF800FFFFFFFF0000F800F800CF
:10580000F800F800F800F800F800F800F800F800D8
:10581000F800F800FFFF0000F800F800F800F800BA
:10582000F800F800F800F800F800F8000000F800B0
:10583000F800F8000000F800F800F800F800F800A0
:10584000FFFF0000F800F800F800F800F800F8008A
:10585000F8000000F800F800F800F800F800F80080
:10586000F800F800F800F8000000F800F800000068
:10587000F800F800FFFF0000F800F8000000F80052
:10588000F800F800F8000000F800F800F800F80050
:10589000F800F800F800F800FFFFF800F800FFFF3C
:1058A000FFFFFFFFFFFFFFFFFFFFF800FFFFF80014
:1058B000FFFFFFFFFFFFF800F800F800F800F80016
:1058C0000000FFFFFFFFFFFFF800F800F800F800FE
:1058D000F800F800F800F800F8000000F800FFFFFA
:1058E000F8000000F800F800F800F800F800F800F0
:1058F0000000F800F800F800F800F800F800F800E0
:10590000F800F800F800F800F800F800F800F800D7
:10591000F800F800F800F8000000F800F800FFFFB9
:10592000F800F800F8000000F800F800F800FFFFA9
:10593000F8000000F800FFFFF800F800F800F80099
:10594000F800F800F800F800F800F800F800F80097
:105950000000F800F800F800F800F800F800F8007F
:10596000F800F800F8000000F800F800F800FFFF69
:10597000FFFFFFFFFFFFFFFFFFFFFFFFFFFFFFFF37
:10598000F800FFFFF800F800F800F800F800F80051
:10599000F800F800FFFFFFFFFFFFF800F80000002D
:1059A000F800F8000000FFFFF800F800F800F80029
:1059B000F800F800F800F800F8000000F800F8001F
:1059C000F800F800F800F800F800F800F800F80017
:1059D0000000F800F800FFFF0000F800F8000000E9
:1059E000F800F800F800F800F800F800F8000000EF
:1059F000F800F800F800F800F800F8000000F800DF
:105A0000F800F800F800F800F800F800F800FFFFD0
:105A1000F8000000F800F800F800FFFFF800F800B8
:105A2000FFFFFFFFF800F800F8000000F800F800A2
:105A30000000FFFFF800F800F800F800FFFFFFFF8C
:105A4000FFFFF800FFFFFFFFF800FFFFFFFFF80078
:105A50000000F800F8000000F800F800FFFF000068
:105A6000F800F800FFFFFFFFF8000000F800F80062
:105A7000FFFFF800F800F800F800F800F800000058
:105A8000F800F800F800F800F800FFFFF800F80050
:105A9000F800FFFF0000F800F8000000F800FFFF2A
:105AA000F800F800F800F800F800F800F800F80036
:105AB000F800F800F800F800FFFFFFFFFFFFF80014
:105AC000F800F800FFFFF800F800F800F800F80010
:105AD000F800F800F8000000F800F8000000F800F6
